{
  "_format": "hh-sol-artifact-1",
  "contractName": "VeridaDIDLinkage",
  "sourceName": "contracts/VeridaDIDLinkage.sol",
  "abi": [
    {
      "anonymous": false,
      "inputs": [
        {
          "indexed": false,
          "internalType": "uint8",
          "name": "version",
          "type": "uint8"
        }
      ],
      "name": "Initialized",
      "type": "event"
    },
    {
      "anonymous": false,
      "inputs": [
        {
          "indexed": false,
          "internalType": "string",
          "name": "did",
          "type": "string"
        },
        {
          "indexed": false,
          "internalType": "string",
          "name": "identifier",
          "type": "string"
        }
      ],
      "name": "Link",
      "type": "event"
    },
    {
      "anonymous": false,
      "inputs": [
        {
          "indexed": true,
          "internalType": "address",
          "name": "previousOwner",
          "type": "address"
        },
        {
          "indexed": true,
          "internalType": "address",
          "name": "newOwner",
          "type": "address"
        }
      ],
      "name": "OwnershipTransferred",
      "type": "event"
    },
    {
      "anonymous": false,
      "inputs": [
        {
          "indexed": false,
          "internalType": "string",
          "name": "did",
          "type": "string"
        },
        {
          "indexed": false,
          "internalType": "string",
          "name": "identifier",
          "type": "string"
        }
      ],
      "name": "Unlink",
      "type": "event"
    },
    {
      "inputs": [
        {
          "internalType": "string",
          "name": "identifierTypeId",
          "type": "string"
        },
        {
          "internalType": "bool",
          "name": "isSelfSigner",
          "type": "bool"
        }
      ],
      "name": "addIdentifierType",
      "outputs": [],
      "stateMutability": "nonpayable",
      "type": "function"
    },
    {
      "inputs": [
        {
          "internalType": "address",
          "name": "didAddress",
          "type": "address"
        }
      ],
      "name": "addTrustedSigner",
      "outputs": [],
      "stateMutability": "nonpayable",
      "type": "function"
    },
    {
      "inputs": [
        {
          "internalType": "string",
          "name": "did",
          "type": "string"
        }
      ],
      "name": "getLinks",
      "outputs": [
        {
          "internalType": "string[]",
          "name": "",
          "type": "string[]"
        }
      ],
      "stateMutability": "view",
      "type": "function"
    },
    {
      "inputs": [],
      "name": "initialize",
      "outputs": [],
      "stateMutability": "nonpayable",
      "type": "function"
    },
    {
      "inputs": [
        {
          "internalType": "string",
          "name": "did",
          "type": "string"
        },
        {
          "internalType": "string",
          "name": "identifier",
          "type": "string"
        }
      ],
      "name": "isLinked",
      "outputs": [
        {
          "internalType": "bool",
          "name": "",
          "type": "bool"
        }
      ],
      "stateMutability": "view",
      "type": "function"
    },
    {
      "inputs": [
        {
          "internalType": "address",
          "name": "signer",
          "type": "address"
        }
      ],
      "name": "isTrustedSignerAddress",
      "outputs": [
        {
          "internalType": "bool",
          "name": "",
          "type": "bool"
        }
      ],
      "stateMutability": "view",
      "type": "function"
    },
    {
      "inputs": [
        {
          "internalType": "address",
          "name": "didAddr",
          "type": "address"
        },
        {
          "components": [
            {
              "internalType": "string",
              "name": "identifier",
              "type": "string"
            },
            {
              "internalType": "bytes",
              "name": "signedData",
              "type": "bytes"
            },
            {
              "internalType": "bytes",
              "name": "signedProof",
              "type": "bytes"
            }
          ],
          "internalType": "struct IVeridaDIDLinkage.LinkInfo",
          "name": "info",
          "type": "tuple"
        },
        {
          "internalType": "bytes",
          "name": "requestSignature",
          "type": "bytes"
        },
        {
          "internalType": "bytes",
          "name": "requestProof",
          "type": "bytes"
        }
      ],
      "name": "link",
      "outputs": [],
      "stateMutability": "nonpayable",
      "type": "function"
    },
    {
      "inputs": [
        {
          "internalType": "string",
          "name": "identifier",
          "type": "string"
        }
      ],
      "name": "lookup",
      "outputs": [
        {
          "internalType": "string",
          "name": "",
          "type": "string"
        }
      ],
      "stateMutability": "view",
      "type": "function"
    },
    {
      "inputs": [
        {
          "internalType": "address",
          "name": "did",
          "type": "address"
        }
      ],
      "name": "nonce",
      "outputs": [
        {
          "internalType": "uint256",
          "name": "",
          "type": "uint256"
        }
      ],
      "stateMutability": "view",
      "type": "function"
    },
    {
      "inputs": [],
      "name": "owner",
      "outputs": [
        {
          "internalType": "address",
          "name": "",
          "type": "address"
        }
      ],
      "stateMutability": "view",
      "type": "function"
    },
    {
      "inputs": [
        {
          "internalType": "address",
          "name": "didAddress",
          "type": "address"
        }
      ],
      "name": "removeTrustedSigner",
      "outputs": [],
      "stateMutability": "nonpayable",
      "type": "function"
    },
    {
      "inputs": [],
      "name": "renounceOwnership",
      "outputs": [],
      "stateMutability": "nonpayable",
      "type": "function"
    },
    {
      "inputs": [
        {
          "internalType": "address",
          "name": "newOwner",
          "type": "address"
        }
      ],
      "name": "transferOwnership",
      "outputs": [],
      "stateMutability": "nonpayable",
      "type": "function"
    },
    {
      "inputs": [
        {
          "internalType": "address",
          "name": "didAddr",
          "type": "address"
        },
        {
          "internalType": "string",
          "name": "identifier",
          "type": "string"
        },
        {
          "internalType": "bytes",
          "name": "requestSignature",
          "type": "bytes"
        },
        {
          "internalType": "bytes",
          "name": "requestProof",
          "type": "bytes"
        }
      ],
      "name": "unlink",
      "outputs": [],
      "stateMutability": "nonpayable",
      "type": "function"
    }
  ],
  "bytecode": "0x608060405234801561001057600080fd5b50612cbc806100206000396000f3fe608060405234801561001057600080fd5b50600436106100ea5760003560e01c80638129fc1c1161008c578063de761a8e11610066578063de761a8e146101e7578063ee050c89146101fa578063f2fde38b1461020d578063f67187ac1461022057600080fd5b80638129fc1c146101a45780638da5cb5b146101ac578063b7210f8d146101c757600080fd5b80635580ed35116100c85780635580ed351461013f57806370ae92d214610152578063715018a6146101895780637d66527b1461019157600080fd5b80632307fd2b146100ef578063270792be146101175780633fff987b1461012a575b600080fd5b6101026100fd366004612470565b610240565b60405190151581526020015b60405180910390f35b6101026101253660046124cd565b610253565b61013d610138366004612470565b6102bf565b005b61013d61014d366004612539565b6102e6565b61017b610160366004612470565b6001600160a01b031660009081526065602052604090205490565b60405190815260200161010e565b61013d61051c565b61013d61019f366004612470565b610530565b61013d61059a565b6033546040516001600160a01b03909116815260200161010e565b6101da6101d53660046125e4565b6106b9565b60405161010e9190612676565b61013d6101f53660046126d8565b61078b565b61013d610208366004612785565b610c70565b61013d61021b366004612470565b610d51565b61023361022e3660046125e4565b610dde565b60405161010e91906127e1565b600061024d606683610e91565b92915050565b60006102b683838080601f01602080910402602001604051908101604052809392919081815260200183838082843760009201919091525050604051606a92506102a19150899089906127f4565b90815260405190819003602001902090610eb6565b95945050505050565b6102c7610ee3565b6102d2606682610e91565b6102e3576102e1606682610f3d565b505b50565b60006102fa886001600160a01b0316610f52565b90508060405160200161030d9190612804565b60408051601f198184030181526020601f8a0181900481028401810190925288835292506103619190899089908190840183828082843760009201919091525050604051606a92506102a191508590612849565b6103b25760405162461bcd60e51b815260206004820152601560248201527f4964656e746966696572206e6f74206c696e6b6564000000000000000000000060448201526064015b60405180910390fd5b60008188886040516020016103c993929190612865565b60408051601f198184030181526020601f8901819004810284018101909252878352925061044a918b918491908a908a908190840183828082843760009201919091525050604080516020601f8c018190048102820181019092528a815292508a9150899081908401838280828437600092019190915250610f6992505050565b506069878760405161045d9291906127f4565b908152602001604051809103902060006104779190612406565b6104d687878080601f01602080910402602001604051908101604052809392919081815260200183838082843760009201919091525050604051606a92506104c191508590612849565b90815260405190819003602001902090611038565b507f9eb1aaaca8b1af07bd616125a2e0276f5813fce2053dabff74a8527254a776bc81888860405161050a9392919061289c565b60405180910390a15050505050505050565b610524610ee3565b61052e60006111fe565b565b610538610ee3565b610543606682610e91565b61058f5760405162461bcd60e51b815260206004820152601460248201527f556e72656769737465726564206164647265737300000000000000000000000060448201526064016103a9565b6102e1606682611268565b600054610100900460ff16158080156105ba5750600054600160ff909116105b806105d45750303b1580156105d4575060005460ff166001145b6106465760405162461bcd60e51b815260206004820152602e60248201527f496e697469616c697a61626c653a20636f6e747261637420697320616c72656160448201527f647920696e697469616c697a656400000000000000000000000000000000000060648201526084016103a9565b6000805460ff191660011790558015610669576000805461ff0019166101001790555b61067161127d565b80156102e3576000805461ff0019169055604051600181527f7f26b83ff96e1f2b6a682f133852f6798a09c465da95921460cefb38474024989060200160405180910390a150565b60606000606a84846040516106cf9291906127f4565b9081526020016040518091039020905060006106e9825490565b905060008167ffffffffffffffff811115610706576107066128e2565b60405190808252806020026020018201604052801561073957816020015b60608152602001906001900390816107245790505b50905060005b828110156107815761075184826112f8565b828281518110610763576107636128f8565b6020026020010181905250808061077990612924565b91505061073f565b5095945050505050565b6060806107a061079b888061293d565b611324565b909250905060006068836040516107b79190612849565b9081526040519081900360200190205460ff1660028111156107db576107db612984565b036108285760405162461bcd60e51b815260206004820152601760248201527f496e76616c6964206964656e746966696572207479706500000000000000000060448201526064016103a9565b600061083c896001600160a01b0316610f52565b90508060405160200161084f9190612804565b60408051601f198184030181529190529050606961086d898061293d565b60405161087b9291906127f4565b908152602001604051809103902080546108949061299a565b1590506108e35760405162461bcd60e51b815260206004820152601760248201527f4964656e7469747920616c72656164792065786973747300000000000000000060448201526064016103a9565b6000896108f08a8061293d565b6108fd60208d018d61293d565b61090a60408f018f61293d565b60405160200161092097969594939291906129d4565b60408051601f198184030181526020601f8b0181900481028401810190925289835292506109a1918c918491908c908c908190840183828082843760009201919091525050604080516020601f8e018190048102820181019092528c815292508c91508b9081908401838280828437600092019190915250610f6992505050565b816109ac8a8061293d565b6040516020016109be93929190612865565b60408051601f19818403018152919052905060016068856040516109e29190612849565b9081526040519081900360200190205460ff166002811115610a0657610a06612984565b03610af65760408051600180825281830190925260009160208083019080368337019050509050610a368461166f565b81600081518110610a4957610a496128f8565b6001600160a01b03909216602092830291909101820152610af0908390610a72908d018d61293d565b8080601f016020809104026020016040519081016040528093929190818152602001838380828437600092019190915250610ab49250505060408e018e61293d565b8080601f0160208091040260200160405190810160405280939291908181526020018383808284376000920191909152508792506118b0915050565b50610b83565b610b8381610b0760208c018c61293d565b8080601f016020809104026020016040519081016040528093929190818152602001838380828437600092019190915250610b499250505060408d018d61293d565b8080601f016020809104026020016040519081016040528093929190818152602001838380828437600092019190915250611a5c92505050565b50806069610b918a8061293d565b604051610b9f9291906127f4565b90815260200160405180910390209081610bb99190612a7a565b50610c21610bc7898061293d565b8080601f01602080910402602001604051908101604052809392919081815260200183838082843760009201919091525050604051606a9250610c0c91508590612849565b90815260405190819003602001902090611c08565b507f5e3d0e4c4db5013414bcd8385e299ab097819b72bc1aa3f5fb5ab75e6db321f781610c4e8a8061293d565b604051610c5d9392919061289c565b60405180910390a1505050505050505050565b610c78610ee3565b600060688484604051610c8c9291906127f4565b9081526040519081900360200190205460ff166002811115610cb057610cb0612984565b14610cfd5760405162461bcd60e51b815260206004820152600f60248201527f526567697374657265642074797065000000000000000000000000000000000060448201526064016103a9565b80610d09576002610d0c565b60015b60688484604051610d1e9291906127f4565b908152604051908190036020019020805460ff19166001836002811115610d4757610d47612984565b0217905550505050565b610d59610ee3565b6001600160a01b038116610dd55760405162461bcd60e51b815260206004820152602660248201527f4f776e61626c653a206e6577206f776e657220697320746865207a65726f206160448201527f646472657373000000000000000000000000000000000000000000000000000060648201526084016103a9565b6102e3816111fe565b606060698383604051610df29291906127f4565b90815260200160405180910390208054610e0b9061299a565b80601f0160208091040260200160405190810160405280929190818152602001828054610e379061299a565b8015610e845780601f10610e5957610100808354040283529160200191610e84565b820191906000526020600020905b815481529060010190602001808311610e6757829003601f168201915b5050505050905092915050565b6001600160a01b038116600090815260018301602052604081205415155b9392505050565b60008260010182604051610eca9190612849565b9081526040519081900360200190205415159392505050565b6033546001600160a01b0316331461052e5760405162461bcd60e51b815260206004820181905260248201527f4f776e61626c653a2063616c6c6572206973206e6f7420746865206f776e657260448201526064016103a9565b6000610eaf836001600160a01b038416611c6a565b606061024d82610f6184611cb1565b600101611d1b565b6001600160a01b0384166000908152606560209081526040808320549051909291610f98918791859101612b3a565b60408051601f198184030181526001808452838301909252925060009190602080830190803683370190505090508681600081518110610fda57610fda6128f8565b60200260200101906001600160a01b031690816001600160a01b031681525050611006828686846118b0565b6001600160a01b038716600090815260656020526040812080549161102a83612924565b919050555050505050505050565b600080836001018360405161104d9190612849565b9081526020016040518091039020549050806000146111ed576000611073600183612b5c565b855490915060009061108790600190612b5c565b905081811461118e5760008660000182815481106110a7576110a76128f8565b9060005260206000200180546110bc9061299a565b80601f01602080910402602001604051908101604052809291908181526020018280546110e89061299a565b80156111355780601f1061110a57610100808354040283529160200191611135565b820191906000526020600020905b81548152906001019060200180831161111857829003601f168201915b5050505050905080876000018481548110611152576111526128f8565b9060005260206000200190816111689190612a7a565b5083876001018260405161117c9190612849565b90815260405190819003602001902055505b855486908061119f5761119f612b6f565b6001900381819060005260206000200160006111bb9190612406565b905585600101856040516111cf9190612849565b9081526020016040518091039020600090556001935050505061024d565b600091505061024d565b5092915050565b603380546001600160a01b038381167fffffffffffffffffffffffff0000000000000000000000000000000000000000831681179093556040519116919082907f8be0079c531659141344cd1fd0a4f28419497f9722a3daafe3b4186f6b6457e090600090a35050565b6000610eaf836001600160a01b038416611efc565b600054610100900460ff166112e85760405162461bcd60e51b815260206004820152602b60248201527f496e697469616c697a61626c653a20636f6e7472616374206973206e6f74206960448201526a6e697469616c697a696e6760a81b60648201526084016103a9565b6112f0611fe5565b61052e612058565b606082600001828154811061130f5761130f6128f8565b906000526020600020018054610e0b9061299a565b606080600084848080601f01602080910402602001604051908101604052809392919081815260200183838082843760009201919091525050825192935050506113b05760405162461bcd60e51b815260206004820152601260248201527f496e76616c6964206964656e746966696572000000000000000000000000000060448201526064016103a9565b8051806000805b83821080156113c9575060028160ff16105b15611435578482815181106113e0576113e06128f8565b01602001517fff0000000000000000000000000000000000000000000000000000000000000016601f60fa1b0361142357819250808061141f90612b85565b9150505b8161142d81612924565b9250506113b7565b838214801561144757508060ff166001145b80156114535750600083115b80156114685750611465600185612b5c565b83105b6114b45760405162461bcd60e51b815260206004820152601260248201527f496e76616c6964206964656e746966696572000000000000000000000000000060448201526064016103a9565b60008367ffffffffffffffff8111156114cf576114cf6128e2565b6040519080825280601f01601f1916602001820160405280156114f9576020820181803683370190505b509050600092505b838310156115615785838151811061151b5761151b6128f8565b602001015160f81c60f81b818481518110611538576115386128f8565b60200101906001600160f81b031916908160001a9053508261155981612924565b935050611501565b6000600161156f8688612b5c565b6115799190612b5c565b67ffffffffffffffff811115611591576115916128e2565b6040519080825280601f01601f1916602001820160405280156115bb576020820181803683370190505b5090506115c9856001612ba4565b93505b8584101561165d578684815181106115e6576115e66128f8565b01602001517fff000000000000000000000000000000000000000000000000000000000000001681600161161a8888612b5c565b6116249190612b5c565b81518110611634576116346128f8565b60200101906001600160f81b031916908160001a9053508361165581612924565b9450506115cc565b909750955050505050505b9250929050565b80516000908290602a146116c55760405162461bcd60e51b815260206004820152600f60248201527f496e76616c69642061646472657373000000000000000000000000000000000060448201526064016103a9565b6000808060025b602a8110156118a5576116e161010085612bb7565b93508481815181106116f5576116f56128f8565b016020015160f81c92508461170b826001612ba4565b8151811061171b5761171b6128f8565b016020015160f81c915060616001600160a01b0384161080159061174957506066836001600160a01b031611155b1561176057611759605784612be9565b92506117cb565b6041836001600160a01b03161015801561178457506046836001600160a01b031611155b1561179457611759603784612be9565b6030836001600160a01b0316101580156117b857506039836001600160a01b031611155b156117cb576117c8603084612be9565b92505b6061826001600160a01b0316101580156117ef57506066826001600160a01b031611155b15611806576117ff605783612be9565b9150611871565b6041826001600160a01b03161015801561182a57506046826001600160a01b031611155b1561183a576117ff603783612be9565b6030826001600160a01b03161015801561185e57506039826001600160a01b031611155b156118715761186e603083612be9565b91505b8161187d846010612bb7565b6118879190612c09565b6118919085612c09565b935061189e600282612ba4565b90506116cc565b509195945050505050565b60008151116119015760405162461bcd60e51b815260206004820152601360248201527f4e6f207369676e6572732070726f76696465640000000000000000000000000060448201526064016103a9565b83516020850120600061191482866120c3565b9050600061192a826001600160a01b0316610f52565b90506000805b85518110801561193e575081155b156119f2576000868281518110611957576119576128f8565b602002602001015190506000611975826001600160a01b0316610f52565b90506000818660405160200161198c929190612c29565b60408051601f198184030181529190528051602082012090915060006119b2828d6120c3565b9050846001600160a01b0316816001600160a01b0316036119db576001965050505050506119f2565b856119e581612924565b9650505050505050611930565b81611a515760405162461bcd60e51b815260206004820152602960248201527f44617461206973206e6f74207369676e656420627920612076616c696420736960448201526819db9a5b99c811125160ba1b60648201526084016103a9565b505050505050505050565b6000611a6860666120e7565b11611ab55760405162461bcd60e51b815260206004820152601360248201527f4e6f207369676e6572732070726f76696465640000000000000000000000000060448201526064016103a9565b825160208401206000611ac882856120c3565b90506000611ade826001600160a01b0316610f52565b90506000805b611aee60666120e7565b81108015611afa575081155b15611b9f576000611b0c6066836120f1565b90506000611b22826001600160a01b0316610f52565b905060008186604051602001611b39929190612c29565b60408051601f19818403018152919052805160208201209091506000611b5f828c6120c3565b9050846001600160a01b0316816001600160a01b031603611b8857600196505050505050611b9f565b85611b9281612924565b9650505050505050611ae4565b81611bfe5760405162461bcd60e51b815260206004820152602960248201527f44617461206973206e6f74207369676e656420627920612076616c696420736960448201526819db9a5b99c811125160ba1b60648201526084016103a9565b5050505050505050565b6000611c148383610eb6565b611c6257825460018101845560008481526020902001611c348382612a7a565b5082546040516001850190611c4a908590612849565b9081526040519081900360200190205550600161024d565b50600061024d565b6000818152600183016020526040812054611c625750815460018181018455600084815260208082209093018490558454848252828601909352604090209190915561024d565b600080608083901c15611cc95760809290921c916010015b604083901c15611cde5760409290921c916008015b602083901c15611cf35760209290921c916004015b601083901c15611d085760109290921c916002015b600883901c1561024d5760010192915050565b60606000611d2a836002612c58565b611d35906002612ba4565b67ffffffffffffffff811115611d4d57611d4d6128e2565b6040519080825280601f01601f191660200182016040528015611d77576020820181803683370190505b5090507f300000000000000000000000000000000000000000000000000000000000000081600081518110611dae57611dae6128f8565b60200101906001600160f81b031916908160001a9053507f780000000000000000000000000000000000000000000000000000000000000081600181518110611df957611df96128f8565b60200101906001600160f81b031916908160001a9053506000611e1d846002612c58565b611e28906001612ba4565b90505b6001811115611ead577f303132333435363738396162636465660000000000000000000000000000000085600f1660108110611e6957611e696128f8565b1a60f81b828281518110611e7f57611e7f6128f8565b60200101906001600160f81b031916908160001a90535060049490941c93611ea681612c6f565b9050611e2b565b508315610eaf5760405162461bcd60e51b815260206004820181905260248201527f537472696e67733a20686578206c656e67746820696e73756666696369656e7460448201526064016103a9565b600081815260018301602052604081205480156111ed576000611f20600183612b5c565b8554909150600090611f3490600190612b5c565b9050818114611f99576000866000018281548110611f5457611f546128f8565b9060005260206000200154905080876000018481548110611f7757611f776128f8565b6000918252602080832090910192909255918252600188019052604090208390555b8554869080611faa57611faa612b6f565b60019003818190600052602060002001600090559055856001016000868152602001908152602001600020600090556001935050505061024d565b600054610100900460ff166120505760405162461bcd60e51b815260206004820152602b60248201527f496e697469616c697a61626c653a20636f6e7472616374206973206e6f74206960448201526a6e697469616c697a696e6760a81b60648201526084016103a9565b61052e6120fd565b600054610100900460ff1661052e5760405162461bcd60e51b815260206004820152602b60248201527f496e697469616c697a61626c653a20636f6e7472616374206973206e6f74206960448201526a6e697469616c697a696e6760a81b60648201526084016103a9565b60008060006120d28585612171565b915091506120df816121b3565b509392505050565b600061024d825490565b6000610eaf8383612318565b600054610100900460ff166121685760405162461bcd60e51b815260206004820152602b60248201527f496e697469616c697a61626c653a20636f6e7472616374206973206e6f74206960448201526a6e697469616c697a696e6760a81b60648201526084016103a9565b61052e336111fe565b60008082516041036121a75760208301516040840151606085015160001a61219b87828585612342565b94509450505050611668565b50600090506002611668565b60008160048111156121c7576121c7612984565b036121cf5750565b60018160048111156121e3576121e3612984565b036122305760405162461bcd60e51b815260206004820152601860248201527f45434453413a20696e76616c6964207369676e6174757265000000000000000060448201526064016103a9565b600281600481111561224457612244612984565b036122915760405162461bcd60e51b815260206004820152601f60248201527f45434453413a20696e76616c6964207369676e6174757265206c656e6774680060448201526064016103a9565b60038160048111156122a5576122a5612984565b036102e35760405162461bcd60e51b815260206004820152602260248201527f45434453413a20696e76616c6964207369676e6174757265202773272076616c60448201527f756500000000000000000000000000000000000000000000000000000000000060648201526084016103a9565b600082600001828154811061232f5761232f6128f8565b9060005260206000200154905092915050565b6000807f7fffffffffffffffffffffffffffffff5d576e7357a4501ddfe92f46681b20a083111561237957506000905060036123fd565b6040805160008082526020820180845289905260ff881692820192909252606081018690526080810185905260019060a0016020604051602081039080840390855afa1580156123cd573d6000803e3d6000fd5b5050604051601f1901519150506001600160a01b0381166123f6576000600192509250506123fd565b9150600090505b94509492505050565b5080546124129061299a565b6000825580601f10612422575050565b601f0160209004906000526020600020908101906102e391905b80821115612450576000815560010161243c565b5090565b80356001600160a01b038116811461246b57600080fd5b919050565b60006020828403121561248257600080fd5b610eaf82612454565b60008083601f84011261249d57600080fd5b50813567ffffffffffffffff8111156124b557600080fd5b60208301915083602082850101111561166857600080fd5b600080600080604085870312156124e357600080fd5b843567ffffffffffffffff808211156124fb57600080fd5b6125078883890161248b565b9096509450602087013591508082111561252057600080fd5b5061252d8782880161248b565b95989497509550505050565b60008060008060008060006080888a03121561255457600080fd5b61255d88612454565b9650602088013567ffffffffffffffff8082111561257a57600080fd5b6125868b838c0161248b565b909850965060408a013591508082111561259f57600080fd5b6125ab8b838c0161248b565b909650945060608a01359150808211156125c457600080fd5b506125d18a828b0161248b565b989b979a50959850939692959293505050565b600080602083850312156125f757600080fd5b823567ffffffffffffffff81111561260e57600080fd5b61261a8582860161248b565b90969095509350505050565b60005b83811015612641578181015183820152602001612629565b50506000910152565b60008151808452612662816020860160208601612626565b601f01601f19169290920160200192915050565b6000602080830181845280855180835260408601915060408160051b870101925083870160005b828110156126cb57603f198886030184526126b985835161264a565b9450928501929085019060010161269d565b5092979650505050505050565b600080600080600080608087890312156126f157600080fd5b6126fa87612454565b9550602087013567ffffffffffffffff8082111561271757600080fd5b908801906060828b03121561272b57600080fd5b9095506040880135908082111561274157600080fd5b61274d8a838b0161248b565b9096509450606089013591508082111561276657600080fd5b5061277389828a0161248b565b979a9699509497509295939492505050565b60008060006040848603121561279a57600080fd5b833567ffffffffffffffff8111156127b157600080fd5b6127bd8682870161248b565b909450925050602084013580151581146127d657600080fd5b809150509250925092565b602081526000610eaf602083018461264a565b8183823760009101908152919050565b7f6469643a7664613a00000000000000000000000000000000000000000000000081526000825161283c816008850160208701612626565b9190910160080192915050565b6000825161285b818460208701612626565b9190910192915050565b60008451612877818460208901612626565b601f60fa1b908301908152838560018301376000930160010192835250909392505050565b6040815260006128af604083018661264a565b8281036020840152838152838560208301376000602085830101526020601f19601f860116820101915050949350505050565b634e487b7160e01b600052604160045260246000fd5b634e487b7160e01b600052603260045260246000fd5b634e487b7160e01b600052601160045260246000fd5b6000600182016129365761293661290e565b5060010190565b6000808335601e1984360301811261295457600080fd5b83018035915067ffffffffffffffff82111561296f57600080fd5b60200191503681900382131561166857600080fd5b634e487b7160e01b600052602160045260246000fd5b600181811c908216806129ae57607f821691505b6020821081036129ce57634e487b7160e01b600052602260045260246000fd5b50919050565b6bffffffffffffffffffffffff198860601b16815285876014830137600086820160148101600081528688823750858101905060148101600081528486823750600093016014019283525090979650505050505050565b601f821115612a7557600081815260208120601f850160051c81016020861015612a525750805b601f850160051c820191505b81811015612a7157828155600101612a5e565b5050505b505050565b815167ffffffffffffffff811115612a9457612a946128e2565b612aa881612aa2845461299a565b84612a2b565b602080601f831160018114612add5760008415612ac55750858301515b600019600386901b1c1916600185901b178555612a71565b600085815260208120601f198616915b82811015612b0c57888601518255948401946001909101908401612aed565b5085821015612b2a5787850151600019600388901b60f8161c191681555b5050505050600190811b01905550565b60008351612b4c818460208801612626565b9190910191825250602001919050565b8181038181111561024d5761024d61290e565b634e487b7160e01b600052603160045260246000fd5b600060ff821660ff8103612b9b57612b9b61290e565b60010192915050565b8082018082111561024d5761024d61290e565b6001600160a01b03828116828216818102831692918115828504821417612be057612be061290e565b50505092915050565b6001600160a01b038281168282160390808211156111f7576111f761290e565b6001600160a01b038181168382160190808211156111f7576111f761290e565b60008351612c3b818460208801612626565b835190830190612c4f818360208801612626565b01949350505050565b808202811582820484141761024d5761024d61290e565b600081612c7e57612c7e61290e565b50600019019056fea264697066735822122004028cd6fb7d0e364600585659496b2fd4d5e7f8d07babc0d827b87e7c32aa1464736f6c63430008110033",
  "linkReferences": {},
  "deployedLinkReferences": {}
}