{
  "_format": "hh-sol-artifact-1",
  "contractName": "NameRegistry",
  "sourceName": "contracts/NameRegistry.sol",
  "abi": [
    {
      "anonymous": false,
      "inputs": [
        {
          "indexed": true,
          "internalType": "string",
          "name": "suffix",
          "type": "string"
        }
      ],
      "name": "AddSuffix",
      "type": "event"
    },
    {
      "anonymous": false,
      "inputs": [
        {
          "indexed": false,
          "internalType": "uint8",
          "name": "version",
          "type": "uint8"
        }
      ],
      "name": "Initialized",
      "type": "event"
    },
    {
      "anonymous": false,
      "inputs": [
        {
          "indexed": true,
          "internalType": "address",
          "name": "previousOwner",
          "type": "address"
        },
        {
          "indexed": true,
          "internalType": "address",
          "name": "newOwner",
          "type": "address"
        }
      ],
      "name": "OwnershipTransferred",
      "type": "event"
    },
    {
      "anonymous": false,
      "inputs": [
        {
          "indexed": true,
          "internalType": "string",
          "name": "name",
          "type": "string"
        },
        {
          "indexed": true,
          "internalType": "address",
          "name": "DID",
          "type": "address"
        }
      ],
      "name": "Register",
      "type": "event"
    },
    {
      "anonymous": false,
      "inputs": [
        {
          "indexed": true,
          "internalType": "string",
          "name": "name",
          "type": "string"
        },
        {
          "indexed": true,
          "internalType": "address",
          "name": "DID",
          "type": "address"
        }
      ],
      "name": "Unregister",
      "type": "event"
    },
    {
      "anonymous": false,
      "inputs": [
        {
          "indexed": false,
          "internalType": "uint256",
          "name": "from",
          "type": "uint256"
        },
        {
          "indexed": false,
          "internalType": "uint256",
          "name": "to",
          "type": "uint256"
        }
      ],
      "name": "UpdateMaxNamesPerDID",
      "type": "event"
    },
    {
      "inputs": [
        {
          "internalType": "string",
          "name": "suffix",
          "type": "string"
        }
      ],
      "name": "addSufix",
      "outputs": [],
      "stateMutability": "nonpayable",
      "type": "function"
    },
    {
      "inputs": [
        {
          "internalType": "string",
          "name": "name",
          "type": "string"
        }
      ],
      "name": "findDid",
      "outputs": [
        {
          "internalType": "address",
          "name": "",
          "type": "address"
        }
      ],
      "stateMutability": "view",
      "type": "function"
    },
    {
      "inputs": [
        {
          "internalType": "address",
          "name": "did",
          "type": "address"
        }
      ],
      "name": "getNonce",
      "outputs": [
        {
          "internalType": "uint256",
          "name": "",
          "type": "uint256"
        }
      ],
      "stateMutability": "view",
      "type": "function"
    },
    {
      "inputs": [
        {
          "internalType": "address",
          "name": "did",
          "type": "address"
        }
      ],
      "name": "getUserNameList",
      "outputs": [
        {
          "internalType": "string[]",
          "name": "",
          "type": "string[]"
        }
      ],
      "stateMutability": "view",
      "type": "function"
    },
    {
      "inputs": [],
      "name": "initialize",
      "outputs": [],
      "stateMutability": "nonpayable",
      "type": "function"
    },
    {
      "inputs": [],
      "name": "maxNamesPerDID",
      "outputs": [
        {
          "internalType": "uint256",
          "name": "",
          "type": "uint256"
        }
      ],
      "stateMutability": "view",
      "type": "function"
    },
    {
      "inputs": [],
      "name": "owner",
      "outputs": [
        {
          "internalType": "address",
          "name": "",
          "type": "address"
        }
      ],
      "stateMutability": "view",
      "type": "function"
    },
    {
      "inputs": [
        {
          "internalType": "string",
          "name": "name",
          "type": "string"
        },
        {
          "internalType": "address",
          "name": "did",
          "type": "address"
        },
        {
          "internalType": "bytes",
          "name": "signature",
          "type": "bytes"
        }
      ],
      "name": "register",
      "outputs": [],
      "stateMutability": "nonpayable",
      "type": "function"
    },
    {
      "inputs": [],
      "name": "renounceOwnership",
      "outputs": [],
      "stateMutability": "nonpayable",
      "type": "function"
    },
    {
      "inputs": [
        {
          "internalType": "address",
          "name": "newOwner",
          "type": "address"
        }
      ],
      "name": "transferOwnership",
      "outputs": [],
      "stateMutability": "nonpayable",
      "type": "function"
    },
    {
      "inputs": [
        {
          "internalType": "string",
          "name": "name",
          "type": "string"
        },
        {
          "internalType": "address",
          "name": "did",
          "type": "address"
        },
        {
          "internalType": "bytes",
          "name": "signature",
          "type": "bytes"
        }
      ],
      "name": "unregister",
      "outputs": [],
      "stateMutability": "nonpayable",
      "type": "function"
    },
    {
      "inputs": [
        {
          "internalType": "uint256",
          "name": "count",
          "type": "uint256"
        }
      ],
      "name": "updateMaxNamesPerDID",
      "outputs": [],
      "stateMutability": "nonpayable",
      "type": "function"
    }
  ],
  "bytecode": "0x608060405234801561001057600080fd5b5061203f806100206000396000f3fe608060405234801561001057600080fd5b50600436106100d45760003560e01c8063747cbf17116100815780639bd52f961161005b5780639bd52f96146101bc578063d851200f146101c5578063f2fde38b146101d857600080fd5b8063747cbf17146101905780638129fc1c146101a35780638da5cb5b146101ab57600080fd5b80636fc74211116100b25780636fc7421114610155578063714543a814610175578063715018a61461018857600080fd5b80631fe0aa9d146100d95780632d0335ab146100ee5780635711d82f1461012a575b600080fd5b6100ec6100e7366004611c5b565b6101eb565b005b6101176100fc366004611cdf565b6001600160a01b031660009081526065602052604090205490565b6040519081526020015b60405180910390f35b61013d610138366004611d17565b61053a565b6040516001600160a01b039091168152602001610121565b610168610163366004611cdf565b6105c7565b6040516101219190611df8565b6100ec610183366004611c5b565b6106db565b6100ec6109a1565b6100ec61019e366004611d17565b6109b5565b6100ec610a6d565b6033546001600160a01b031661013d565b61011760665481565b6100ec6101d3366004611e72565b610bd3565b6100ec6101e6366004611cdf565b610c70565b6001600160a01b0383166102465760405162461bcd60e51b815260206004820152601460248201527f496e76616c6964207a65726f206164647265737300000000000000000000000060448201526064015b60405180910390fd5b6102508585610cfd565b61029c5760405162461bcd60e51b815260206004820152600e60248201527f496e76616c696420737566666978000000000000000000000000000000000000604482015260640161023d565b6001600160a01b03831660009081526065602052604081205490506000868686846040516020016102d09493929190611e8b565b60405160208183030381529060405290506102ed81858588610d1f565b6103395760405162461bcd60e51b815260206004820152601160248201527f496e76616c6964205369676e6174757265000000000000000000000000000000604482015260640161023d565b5050600061037c86868080601f016020809104026020016040519081016040528093929190818152602001838380828437600092019190915250610d6292505050565b905060006001600160a01b03166067826040516103999190611ebb565b908152604051908190036020019020546001600160a01b0316146103ff5760405162461bcd60e51b815260206004820152601760248201527f4e616d6520616c72656164792072656769737465726564000000000000000000604482015260640161023d565b6001600160a01b0384166000908152606a6020526040902060665481541061048f5760405162461bcd60e51b815260206004820152602260248201527f4449442063616e206e6f7420737570706f727420616e79206d6f7265206e616d60448201527f6573000000000000000000000000000000000000000000000000000000000000606482015260840161023d565b846067836040516104a09190611ebb565b90815260405190819003602001902080546001600160a01b039290921673ffffffffffffffffffffffffffffffffffffffff199092169190911790556104e68183610df4565b50846001600160a01b03168787604051610501929190611ed7565b604051908190038120907f3e49fb7efebefffe4fc2e2c193820fac9b11de4bf185e0d14de13e0068c2ac3490600090a350505050505050565b600061054582610d62565b915060006067836040516105599190611ebb565b908152604051908190036020019020546001600160a01b03169050806105c15760405162461bcd60e51b815260206004820152601160248201527f556e72656769737465726564206e616d65000000000000000000000000000000604482015260640161023d565b92915050565b6001600160a01b0381166000908152606a602052604081206060916105ea825490565b90506000811161063c5760405162461bcd60e51b815260206004820152601160248201527f4e6f207265676973746572656420444944000000000000000000000000000000604482015260640161023d565b60008167ffffffffffffffff81111561065757610657611d01565b60405190808252806020026020018201604052801561068a57816020015b60608152602001906001900390816106755790505b50905060005b828110156106d2576106a28482610e60565b8282815181106106b4576106b4611ee7565b602002602001018190525080806106ca90611f13565b915050610690565b50949350505050565b6001600160a01b0383166107315760405162461bcd60e51b815260206004820152601460248201527f496e76616c6964207a65726f2061646472657373000000000000000000000000604482015260640161023d565b6001600160a01b03831660009081526065602052604081205490506000868686846040516020016107659493929190611e8b565b604051602081830303815290604052905061078281858588610d1f565b6107ce5760405162461bcd60e51b815260206004820152601160248201527f496e76616c6964205369676e6174757265000000000000000000000000000000604482015260640161023d565b5050600061081186868080601f016020809104026020016040519081016040528093929190818152602001838380828437600092019190915250610d6292505050565b905060006067826040516108259190611ebb565b908152604051908190036020019020546001600160a01b031690508061088d5760405162461bcd60e51b815260206004820152601160248201527f556e72656769737465726564206e616d65000000000000000000000000000000604482015260640161023d565b846001600160a01b0316816001600160a01b0316146108ee5760405162461bcd60e51b815260206004820152600b60248201527f496e76616c696420444944000000000000000000000000000000000000000000604482015260640161023d565b6001600160a01b0381166000908152606a6020526040908190209051606790610918908590611ebb565b908152604051908190036020019020805473ffffffffffffffffffffffffffffffffffffffff1916905561094c8184610f12565b50816001600160a01b03168888604051610967929190611ed7565b604051908190038120907ff5277d07faf1a81adcfef41a68d5bf53aecd8982a7c7f3c0df5efb97e43437b190600090a35050505050505050565b6109a96110d8565b6109b36000611132565b565b6109bd6110d8565b6109c681610d62565b90506109d3606882611191565b15610a205760405162461bcd60e51b815260206004820152601260248201527f416c726561647920726567697374657265640000000000000000000000000000604482015260640161023d565b610a2b606882610df4565b5080604051610a3a9190611ebb565b604051908190038120907f0f2e7a1cb3db636cf506883108bff2d2193b967ac6516b1e5d23e672e18a91c990600090a250565b600054610100900460ff1615808015610a8d5750600054600160ff909116105b80610aa75750303b158015610aa7575060005460ff166001145b610b195760405162461bcd60e51b815260206004820152602e60248201527f496e697469616c697a61626c653a20636f6e747261637420697320616c72656160448201527f647920696e697469616c697a6564000000000000000000000000000000000000606482015260840161023d565b6000805460ff191660011790558015610b3c576000805461ff0019166101001790555b610b446111be565b60408051808201909152600681527f76657269646100000000000000000000000000000000000000000000000000006020820152610b8490606890610df4565b5060016066558015610bd0576000805461ff0019169055604051600181527f7f26b83ff96e1f2b6a682f133852f6798a09c465da95921460cefb38474024989060200160405180910390a15b50565b610bdb6110d8565b60008111610c2b5760405162461bcd60e51b815260206004820152601060248201527f5a65726f206e6f7420616c6c6f77656400000000000000000000000000000000604482015260640161023d565b606680549082905560408051828152602081018490527f072c83ac7095da78eb85579bdaac6adb9c6cf5f129acbdb79644338d35a2b696910160405180910390a15050565b610c786110d8565b6001600160a01b038116610cf45760405162461bcd60e51b815260206004820152602660248201527f4f776e61626c653a206e6577206f776e657220697320746865207a65726f206160448201527f6464726573730000000000000000000000000000000000000000000000000000606482015260840161023d565b610bd081611132565b600080610d0a8484611231565b9050610d17606882611191565b949350505050565b600080610d2d86868661155d565b9050826001600160a01b0316816001600160a01b0316148015610d5857506001600160a01b03811615155b9695505050505050565b60608160005b8151811015610ded57610d9a828281518110610d8657610d86611ee7565b01602001516001600160f81b0319166115b3565b828281518110610dac57610dac611ee7565b60200101907effffffffffffffffffffffffffffffffffffffffffffffffffffffffffffff1916908160001a90535080610de581611f13565b915050610d68565b5092915050565b6000610e008383611191565b610e5857825460018101845560008481526020908190208451610e2a939190910191850190611b32565b5082546040516001850190610e40908590611ebb565b908152604051908190036020019020555060016105c1565b5060006105c1565b6060826000018281548110610e7757610e77611ee7565b906000526020600020018054610e8c90611f2e565b80601f0160208091040260200160405190810160405280929190818152602001828054610eb890611f2e565b8015610f055780601f10610eda57610100808354040283529160200191610f05565b820191906000526020600020905b815481529060010190602001808311610ee857829003601f168201915b5050505050905092915050565b6000808360010183604051610f279190611ebb565b9081526020016040518091039020549050806000146110ce576000610f4d600183611f69565b8554909150600090610f6190600190611f69565b905081811461106f576000866000018281548110610f8157610f81611ee7565b906000526020600020018054610f9690611f2e565b80601f0160208091040260200160405190810160405280929190818152602001828054610fc290611f2e565b801561100f5780601f10610fe45761010080835404028352916020019161100f565b820191906000526020600020905b815481529060010190602001808311610ff257829003601f168201915b505050505090508087600001848154811061102c5761102c611ee7565b906000526020600020019080519060200190611049929190611b32565b5083876001018260405161105d9190611ebb565b90815260405190819003602001902055505b855486908061108057611080611f80565b60019003818190600052602060002001600061109c9190611bb2565b905585600101856040516110b09190611ebb565b908152602001604051809103902060009055600193505050506105c1565b60009150506105c1565b6033546001600160a01b031633146109b35760405162461bcd60e51b815260206004820181905260248201527f4f776e61626c653a2063616c6c6572206973206e6f7420746865206f776e6572604482015260640161023d565b603380546001600160a01b0383811673ffffffffffffffffffffffffffffffffffffffff19831681179093556040519116919082907f8be0079c531659141344cd1fd0a4f28419497f9722a3daafe3b4186f6b6457e090600090a35050565b600082600101826040516111a59190611ebb565b9081526040519081900360200190205415159392505050565b600054610100900460ff166112295760405162461bcd60e51b815260206004820152602b60248201527f496e697469616c697a61626c653a20636f6e7472616374206973206e6f74206960448201526a6e697469616c697a696e6760a81b606482015260840161023d565b6109b361163a565b6060600061127484848080601f016020809104026020016040519081016040528093929190818152602001838380828437600092019190915250610d6292505050565b805190915081906112b35760405162461bcd60e51b815260206004820152600960248201526809cde40a6eaccccd2f60bb1b604482015260640161023d565b8051806000805b83821080156112cc575060028160ff16105b80156112fc57506112fc8583815181106112e8576112e8611ee7565b01602001516001600160f81b0319166116ae565b1561135b5784828151811061131357611313611ee7565b6020910101516001600160f81b031916601760f91b141561134957611339826001611f96565b92508061134581611fae565b9150505b8161135381611f13565b9250506112ba565b60028160ff1610801561136d57508382145b6113df5760405162461bcd60e51b815260206004820152602360248201527f496e76616c6964206368617261637465722073706563696669656420696e206e60448201527f616d650000000000000000000000000000000000000000000000000000000000606482015260840161023d565b83831061141a5760405162461bcd60e51b815260206004820152600960248201526809cde40a6eaccccd2f60bb1b604482015260640161023d565b60028311801561142a5750602283105b6114765760405162461bcd60e51b815260206004820152601360248201527f496e76616c6964206e616d65206c656e67746800000000000000000000000000604482015260640161023d565b60006114828486611f69565b67ffffffffffffffff81111561149a5761149a611d01565b6040519080825280601f01601f1916602001820160405280156114c4576020820181803683370190505b5090508392505b84831015611550578583815181106114e5576114e5611ee7565b01602001516001600160f81b031916816114ff8686611f69565b8151811061150f5761150f611ee7565b60200101907effffffffffffffffffffffffffffffffffffffffffffffffffffffffffffff1916908160001a9053508261154881611f13565b9350506114cb565b9998505050505050505050565b600080848051906020012090506115aa8185858080601f01602080910402602001604051908101604052809392919081815260200183838082843760009201919091525061182092505050565b95945050505050565b60007f41000000000000000000000000000000000000000000000000000000000000006001600160f81b031983161080159061161957507f5a000000000000000000000000000000000000000000000000000000000000006001600160f81b0319831611155b156116365761162d60f883901c6020611fce565b60f81b92915050565b5090565b600054610100900460ff166116a55760405162461bcd60e51b815260206004820152602b60248201527f496e697469616c697a61626c653a20636f6e7472616374206973206e6f74206960448201526a6e697469616c697a696e6760a81b606482015260840161023d565b6109b333611132565b60007f61000000000000000000000000000000000000000000000000000000000000006001600160f81b031983161080159061171457507f7a000000000000000000000000000000000000000000000000000000000000006001600160f81b0319831611155b1561172157506001919050565b7f30000000000000000000000000000000000000000000000000000000000000006001600160f81b031983161080159061178557507f39000000000000000000000000000000000000000000000000000000000000006001600160f81b0319831611155b1561179257506001919050565b7f5f000000000000000000000000000000000000000000000000000000000000006001600160f81b0319831614806117f357507f2d000000000000000000000000000000000000000000000000000000000000006001600160f81b03198316145b8061180b5750601760f91b6001600160f81b03198316145b1561181857506001919050565b506000919050565b600080600061182f8585611844565b9150915061183c8161188a565b509392505050565b60008082516041141561187b5760208301516040840151606085015160001a61186f87828585611a45565b94509450505050611883565b506000905060025b9250929050565b600081600481111561189e5761189e611ff3565b14156118a75750565b60018160048111156118bb576118bb611ff3565b14156119095760405162461bcd60e51b815260206004820152601860248201527f45434453413a20696e76616c6964207369676e61747572650000000000000000604482015260640161023d565b600281600481111561191d5761191d611ff3565b141561196b5760405162461bcd60e51b815260206004820152601f60248201527f45434453413a20696e76616c6964207369676e6174757265206c656e67746800604482015260640161023d565b600381600481111561197f5761197f611ff3565b14156119d85760405162461bcd60e51b815260206004820152602260248201527f45434453413a20696e76616c6964207369676e6174757265202773272076616c604482015261756560f01b606482015260840161023d565b60048160048111156119ec576119ec611ff3565b1415610bd05760405162461bcd60e51b815260206004820152602260248201527f45434453413a20696e76616c6964207369676e6174757265202776272076616c604482015261756560f01b606482015260840161023d565b6000807f7fffffffffffffffffffffffffffffff5d576e7357a4501ddfe92f46681b20a0831115611a7c5750600090506003611b29565b8460ff16601b14158015611a9457508460ff16601c14155b15611aa55750600090506004611b29565b6040805160008082526020820180845289905260ff881692820192909252606081018690526080810185905260019060a0016020604051602081039080840390855afa158015611af9573d6000803e3d6000fd5b5050604051601f1901519150506001600160a01b038116611b2257600060019250925050611b29565b9150600090505b94509492505050565b828054611b3e90611f2e565b90600052602060002090601f016020900481019282611b605760008555611ba6565b82601f10611b7957805160ff1916838001178555611ba6565b82800160010185558215611ba6579182015b82811115611ba6578251825591602001919060010190611b8b565b50611636929150611be8565b508054611bbe90611f2e565b6000825580601f10611bce575050565b601f016020900490600052602060002090810190610bd091905b5b808211156116365760008155600101611be9565b60008083601f840112611c0f57600080fd5b50813567ffffffffffffffff811115611c2757600080fd5b60208301915083602082850101111561188357600080fd5b80356001600160a01b0381168114611c5657600080fd5b919050565b600080600080600060608688031215611c7357600080fd5b853567ffffffffffffffff80821115611c8b57600080fd5b611c9789838a01611bfd565b9097509550859150611cab60208901611c3f565b94506040880135915080821115611cc157600080fd5b50611cce88828901611bfd565b969995985093965092949392505050565b600060208284031215611cf157600080fd5b611cfa82611c3f565b9392505050565b634e487b7160e01b600052604160045260246000fd5b600060208284031215611d2957600080fd5b813567ffffffffffffffff80821115611d4157600080fd5b818401915084601f830112611d5557600080fd5b813581811115611d6757611d67611d01565b604051601f8201601f19908116603f01168101908382118183101715611d8f57611d8f611d01565b81604052828152876020848701011115611da857600080fd5b826020860160208301376000928101602001929092525095945050505050565b60005b83811015611de3578181015183820152602001611dcb565b83811115611df2576000848401525b50505050565b6000602080830181845280855180835260408601915060408160051b870101925083870160005b82811015611e6557878503603f1901845281518051808752611e46818989018a8501611dc8565b601f01601f191695909501860194509285019290850190600101611e1f565b5092979650505050505050565b600060208284031215611e8457600080fd5b5035919050565b8385823760609290921b6bffffffffffffffffffffffff1916919092019081526014810191909152603401919050565b60008251611ecd818460208701611dc8565b9190910192915050565b8183823760009101908152919050565b634e487b7160e01b600052603260045260246000fd5b634e487b7160e01b600052601160045260246000fd5b6000600019821415611f2757611f27611efd565b5060010190565b600181811c90821680611f4257607f821691505b60208210811415611f6357634e487b7160e01b600052602260045260246000fd5b50919050565b600082821015611f7b57611f7b611efd565b500390565b634e487b7160e01b600052603160045260246000fd5b60008219821115611fa957611fa9611efd565b500190565b600060ff821660ff811415611fc557611fc5611efd565b60010192915050565b600060ff821660ff84168060ff03821115611feb57611feb611efd565b019392505050565b634e487b7160e01b600052602160045260246000fdfea264697066735822122036ccf5eead9fd35545edf0c284d84702e21302bf1b68a9781401bc284892af6a64736f6c63430008090033",
  "linkReferences": {},
  "deployedLinkReferences": {}
}