{
  "_format": "hh-sol-artifact-1",
  "contractName": "SoulboundNFT",
  "sourceName": "contracts/SoulboundNFT.sol",
  "abi": [
    {
      "inputs": [],
      "stateMutability": "nonpayable",
      "type": "constructor"
    },
    {
      "anonymous": false,
      "inputs": [
        {
          "indexed": true,
          "internalType": "address",
          "name": "owner",
          "type": "address"
        },
        {
          "indexed": true,
          "internalType": "address",
          "name": "approved",
          "type": "address"
        },
        {
          "indexed": true,
          "internalType": "uint256",
          "name": "tokenId",
          "type": "uint256"
        }
      ],
      "name": "Approval",
      "type": "event"
    },
    {
      "anonymous": false,
      "inputs": [
        {
          "indexed": true,
          "internalType": "address",
          "name": "owner",
          "type": "address"
        },
        {
          "indexed": true,
          "internalType": "address",
          "name": "operator",
          "type": "address"
        },
        {
          "indexed": false,
          "internalType": "bool",
          "name": "approved",
          "type": "bool"
        }
      ],
      "name": "ApprovalForAll",
      "type": "event"
    },
    {
      "anonymous": false,
      "inputs": [
        {
          "indexed": false,
          "internalType": "uint8",
          "name": "version",
          "type": "uint8"
        }
      ],
      "name": "Initialized",
      "type": "event"
    },
    {
      "anonymous": false,
      "inputs": [
        {
          "indexed": false,
          "internalType": "uint256",
          "name": "tokenId",
          "type": "uint256"
        }
      ],
      "name": "Locked",
      "type": "event"
    },
    {
      "anonymous": false,
      "inputs": [
        {
          "indexed": true,
          "internalType": "address",
          "name": "previousOwner",
          "type": "address"
        },
        {
          "indexed": true,
          "internalType": "address",
          "name": "newOwner",
          "type": "address"
        }
      ],
      "name": "OwnershipTransferred",
      "type": "event"
    },
    {
      "anonymous": false,
      "inputs": [
        {
          "indexed": false,
          "internalType": "string",
          "name": "_value",
          "type": "string"
        },
        {
          "indexed": true,
          "internalType": "uint256",
          "name": "_id",
          "type": "uint256"
        }
      ],
      "name": "PermanentURI",
      "type": "event"
    },
    {
      "anonymous": false,
      "inputs": [
        {
          "indexed": true,
          "internalType": "address",
          "name": "who",
          "type": "address"
        },
        {
          "indexed": false,
          "internalType": "uint256",
          "name": "tokenId",
          "type": "uint256"
        }
      ],
      "name": "SBTBurnt",
      "type": "event"
    },
    {
      "anonymous": false,
      "inputs": [
        {
          "indexed": true,
          "internalType": "address",
          "name": "to",
          "type": "address"
        },
        {
          "indexed": false,
          "internalType": "uint256",
          "name": "tokenId",
          "type": "uint256"
        },
        {
          "indexed": false,
          "internalType": "string",
          "name": "sbtType",
          "type": "string"
        }
      ],
      "name": "SBTClaimed",
      "type": "event"
    },
    {
      "anonymous": false,
      "inputs": [
        {
          "indexed": true,
          "internalType": "address",
          "name": "from",
          "type": "address"
        },
        {
          "indexed": true,
          "internalType": "address",
          "name": "to",
          "type": "address"
        },
        {
          "indexed": true,
          "internalType": "uint256",
          "name": "tokenId",
          "type": "uint256"
        }
      ],
      "name": "Transfer",
      "type": "event"
    },
    {
      "anonymous": false,
      "inputs": [
        {
          "indexed": false,
          "internalType": "uint256",
          "name": "tokenId",
          "type": "uint256"
        }
      ],
      "name": "Unlocked",
      "type": "event"
    },
    {
      "inputs": [
        {
          "internalType": "address",
          "name": "didAddress",
          "type": "address"
        }
      ],
      "name": "addTrustedSigner",
      "outputs": [],
      "stateMutability": "nonpayable",
      "type": "function"
    },
    {
      "inputs": [
        {
          "internalType": "address",
          "name": "to",
          "type": "address"
        },
        {
          "internalType": "uint256",
          "name": "tokenId",
          "type": "uint256"
        }
      ],
      "name": "approve",
      "outputs": [],
      "stateMutability": "nonpayable",
      "type": "function"
    },
    {
      "inputs": [
        {
          "internalType": "address",
          "name": "owner",
          "type": "address"
        }
      ],
      "name": "balanceOf",
      "outputs": [
        {
          "internalType": "uint256",
          "name": "",
          "type": "uint256"
        }
      ],
      "stateMutability": "view",
      "type": "function"
    },
    {
      "inputs": [
        {
          "internalType": "uint256",
          "name": "tokenId",
          "type": "uint256"
        }
      ],
      "name": "burnSBT",
      "outputs": [],
      "stateMutability": "nonpayable",
      "type": "function"
    },
    {
      "inputs": [
        {
          "internalType": "address",
          "name": "did",
          "type": "address"
        },
        {
          "components": [
            {
              "internalType": "string",
              "name": "sbtType",
              "type": "string"
            },
            {
              "internalType": "string",
              "name": "uniqueId",
              "type": "string"
            },
            {
              "internalType": "string",
              "name": "sbtURI",
              "type": "string"
            },
            {
              "internalType": "address",
              "name": "recipient",
              "type": "address"
            },
            {
              "internalType": "bytes",
              "name": "signedData",
              "type": "bytes"
            },
            {
              "internalType": "bytes",
              "name": "signedProof",
              "type": "bytes"
            }
          ],
          "internalType": "struct ISoulboundNFT.SBTInfo",
          "name": "sbtInfo",
          "type": "tuple"
        },
        {
          "internalType": "bytes",
          "name": "requestSignature",
          "type": "bytes"
        },
        {
          "internalType": "bytes",
          "name": "requestProof",
          "type": "bytes"
        }
      ],
      "name": "claimSBT",
      "outputs": [
        {
          "internalType": "uint256",
          "name": "",
          "type": "uint256"
        }
      ],
      "stateMutability": "nonpayable",
      "type": "function"
    },
    {
      "inputs": [
        {
          "internalType": "uint256",
          "name": "tokenId",
          "type": "uint256"
        }
      ],
      "name": "getApproved",
      "outputs": [
        {
          "internalType": "address",
          "name": "",
          "type": "address"
        }
      ],
      "stateMutability": "view",
      "type": "function"
    },
    {
      "inputs": [],
      "name": "getClaimedSBTList",
      "outputs": [
        {
          "internalType": "uint256[]",
          "name": "",
          "type": "uint256[]"
        }
      ],
      "stateMutability": "view",
      "type": "function"
    },
    {
      "inputs": [],
      "name": "getTrustedSignerAddresses",
      "outputs": [
        {
          "internalType": "address[]",
          "name": "",
          "type": "address[]"
        }
      ],
      "stateMutability": "view",
      "type": "function"
    },
    {
      "inputs": [],
      "name": "initialize",
      "outputs": [],
      "stateMutability": "nonpayable",
      "type": "function"
    },
    {
      "inputs": [
        {
          "internalType": "address",
          "name": "owner",
          "type": "address"
        },
        {
          "internalType": "address",
          "name": "operator",
          "type": "address"
        }
      ],
      "name": "isApprovedForAll",
      "outputs": [
        {
          "internalType": "bool",
          "name": "",
          "type": "bool"
        }
      ],
      "stateMutability": "view",
      "type": "function"
    },
    {
      "inputs": [
        {
          "internalType": "string",
          "name": "sbtType",
          "type": "string"
        },
        {
          "internalType": "string",
          "name": "uniqueId",
          "type": "string"
        }
      ],
      "name": "isSBTClaimed",
      "outputs": [
        {
          "internalType": "bool",
          "name": "",
          "type": "bool"
        }
      ],
      "stateMutability": "view",
      "type": "function"
    },
    {
      "inputs": [
        {
          "internalType": "uint256",
          "name": "tokenId",
          "type": "uint256"
        }
      ],
      "name": "locked",
      "outputs": [
        {
          "internalType": "bool",
          "name": "",
          "type": "bool"
        }
      ],
      "stateMutability": "view",
      "type": "function"
    },
    {
      "inputs": [],
      "name": "name",
      "outputs": [
        {
          "internalType": "string",
          "name": "",
          "type": "string"
        }
      ],
      "stateMutability": "view",
      "type": "function"
    },
    {
      "inputs": [
        {
          "internalType": "address",
          "name": "did",
          "type": "address"
        }
      ],
      "name": "nonce",
      "outputs": [
        {
          "internalType": "uint256",
          "name": "",
          "type": "uint256"
        }
      ],
      "stateMutability": "view",
      "type": "function"
    },
    {
      "inputs": [],
      "name": "owner",
      "outputs": [
        {
          "internalType": "address",
          "name": "",
          "type": "address"
        }
      ],
      "stateMutability": "view",
      "type": "function"
    },
    {
      "inputs": [
        {
          "internalType": "uint256",
          "name": "tokenId",
          "type": "uint256"
        }
      ],
      "name": "ownerOf",
      "outputs": [
        {
          "internalType": "address",
          "name": "",
          "type": "address"
        }
      ],
      "stateMutability": "view",
      "type": "function"
    },
    {
      "inputs": [
        {
          "internalType": "address",
          "name": "didAddress",
          "type": "address"
        }
      ],
      "name": "removeTrustedSigner",
      "outputs": [],
      "stateMutability": "nonpayable",
      "type": "function"
    },
    {
      "inputs": [],
      "name": "renounceOwnership",
      "outputs": [],
      "stateMutability": "nonpayable",
      "type": "function"
    },
    {
      "inputs": [
        {
          "internalType": "address",
          "name": "from",
          "type": "address"
        },
        {
          "internalType": "address",
          "name": "to",
          "type": "address"
        },
        {
          "internalType": "uint256",
          "name": "tokenId",
          "type": "uint256"
        }
      ],
      "name": "safeTransferFrom",
      "outputs": [],
      "stateMutability": "nonpayable",
      "type": "function"
    },
    {
      "inputs": [
        {
          "internalType": "address",
          "name": "from",
          "type": "address"
        },
        {
          "internalType": "address",
          "name": "to",
          "type": "address"
        },
        {
          "internalType": "uint256",
          "name": "tokenId",
          "type": "uint256"
        },
        {
          "internalType": "bytes",
          "name": "data",
          "type": "bytes"
        }
      ],
      "name": "safeTransferFrom",
      "outputs": [],
      "stateMutability": "nonpayable",
      "type": "function"
    },
    {
      "inputs": [
        {
          "internalType": "address",
          "name": "operator",
          "type": "address"
        },
        {
          "internalType": "bool",
          "name": "approved",
          "type": "bool"
        }
      ],
      "name": "setApprovalForAll",
      "outputs": [],
      "stateMutability": "nonpayable",
      "type": "function"
    },
    {
      "inputs": [
        {
          "internalType": "bytes4",
          "name": "interfaceId",
          "type": "bytes4"
        }
      ],
      "name": "supportsInterface",
      "outputs": [
        {
          "internalType": "bool",
          "name": "",
          "type": "bool"
        }
      ],
      "stateMutability": "view",
      "type": "function"
    },
    {
      "inputs": [],
      "name": "symbol",
      "outputs": [
        {
          "internalType": "string",
          "name": "",
          "type": "string"
        }
      ],
      "stateMutability": "view",
      "type": "function"
    },
    {
      "inputs": [
        {
          "internalType": "uint256",
          "name": "tokenId",
          "type": "uint256"
        }
      ],
      "name": "tokenInfo",
      "outputs": [
        {
          "internalType": "string",
          "name": "",
          "type": "string"
        },
        {
          "internalType": "string",
          "name": "",
          "type": "string"
        }
      ],
      "stateMutability": "view",
      "type": "function"
    },
    {
      "inputs": [
        {
          "internalType": "uint256",
          "name": "tokenId",
          "type": "uint256"
        }
      ],
      "name": "tokenURI",
      "outputs": [
        {
          "internalType": "string",
          "name": "",
          "type": "string"
        }
      ],
      "stateMutability": "view",
      "type": "function"
    },
    {
      "inputs": [],
      "name": "totalSupply",
      "outputs": [
        {
          "internalType": "uint256",
          "name": "",
          "type": "uint256"
        }
      ],
      "stateMutability": "view",
      "type": "function"
    },
    {
      "inputs": [
        {
          "internalType": "address",
          "name": "from",
          "type": "address"
        },
        {
          "internalType": "address",
          "name": "to",
          "type": "address"
        },
        {
          "internalType": "uint256",
          "name": "tokenId",
          "type": "uint256"
        }
      ],
      "name": "transferFrom",
      "outputs": [],
      "stateMutability": "nonpayable",
      "type": "function"
    },
    {
      "inputs": [
        {
          "internalType": "address",
          "name": "newOwner",
          "type": "address"
        }
      ],
      "name": "transferOwnership",
      "outputs": [],
      "stateMutability": "nonpayable",
      "type": "function"
    }
  ],
  "bytecode": "0x60806040523480156200001157600080fd5b506200001c62000022565b620000e4565b600054610100900460ff16156200008f5760405162461bcd60e51b815260206004820152602760248201527f496e697469616c697a61626c653a20636f6e747261637420697320696e697469604482015266616c697a696e6760c81b606482015260840160405180910390fd5b60005460ff9081161015620000e2576000805460ff191660ff9081179091556040519081527f7f26b83ff96e1f2b6a682f133852f6798a09c465da95921460cefb38474024989060200160405180910390a15b565b613f5280620000f46000396000f3fe608060405234801561001057600080fd5b50600436106101c45760003560e01c80637d66527b116100f9578063b88d4fde11610097578063e985e9c511610071578063e985e9c5146103c8578063ee575d2914610404578063f2fde38b14610419578063f76c5f821461042c57600080fd5b8063b88d4fde14610381578063c87b56dd14610394578063cc33c875146103a757600080fd5b80638da5cb5b116100d35780638da5cb5b1461034257806395d89b4114610353578063a22cb4651461035b578063b45a3c0e1461036e57600080fd5b80637d66527b146103125780638129fc1c146103255780638d7be2331461032d57600080fd5b806342842e0e1161016657806370a082311161014057806370a08231146102bb57806370ae92d2146102ce578063715018a6146102f75780637584a7e5146102ff57600080fd5b806342842e0e146102825780636352211e146102955780637007cdb0146102a857600080fd5b8063095ea7b3116101a2578063095ea7b31461023157806318160ddd1461024657806323b872dd1461025c5780633fff987b1461026f57600080fd5b806301ffc9a7146101c957806306fdde03146101f1578063081812fc14610206575b600080fd5b6101dc6101d73660046134a0565b61043f565b60405190151581526020015b60405180910390f35b6101f96104dc565b6040516101e8919061350d565b610219610214366004613520565b61056e565b6040516001600160a01b0390911681526020016101e8565b61024461023f366004613555565b610595565b005b61024e6106e9565b6040519081526020016101e8565b61024461026a36600461357f565b6106fa565b61024461027d3660046135bb565b610781565b61024461029036600461357f565b6107a8565b6102196102a3366004613520565b6107c3565b6101dc6102b6366004613618565b610828565b61024e6102c93660046135bb565b610884565b61024e6102dc3660046135bb565b6001600160a01b031660009081526065602052604090205490565b61024461091e565b61024e61030d366004613684565b610932565b6102446103203660046135bb565b610e8c565b610244610ef6565b610335611089565b6040516101e89190613731565b6033546001600160a01b0316610219565b6101f961113a565b610244610369366004613775565b611149565b6101dc61037c366004613520565b611154565b61024461038f3660046137c7565b611182565b6101f96103a2366004613520565b611210565b6103ba6103b5366004613520565b61121b565b6040516101e89291906138a3565b6101dc6103d63660046138d1565b6001600160a01b039182166000908152609f6020908152604080832093909416825291909152205460ff1690565b61040c61135d565b6040516101e89190613904565b6102446104273660046135bb565b611406565b61024461043a366004613520565b611493565b60006001600160e01b031982167f80ac58cd0000000000000000000000000000000000000000000000000000000014806104a257506001600160e01b031982167f5b5e139f00000000000000000000000000000000000000000000000000000000145b806104d657507f01ffc9a7000000000000000000000000000000000000000000000000000000006001600160e01b03198316145b92915050565b6060609a80546104eb90613945565b80601f016020809104026020016040519081016040528092919081815260200182805461051790613945565b80156105645780601f1061053957610100808354040283529160200191610564565b820191906000526020600020905b81548152906001019060200180831161054757829003601f168201915b5050505050905090565b600061057982611606565b506000908152609e60205260409020546001600160a01b031690565b60006105a0826107c3565b9050806001600160a01b0316836001600160a01b03160361062e5760405162461bcd60e51b815260206004820152602160248201527f4552433732313a20617070726f76616c20746f2063757272656e74206f776e6560448201527f720000000000000000000000000000000000000000000000000000000000000060648201526084015b60405180910390fd5b336001600160a01b038216148061066857506001600160a01b0381166000908152609f6020908152604080832033845290915290205460ff165b6106da5760405162461bcd60e51b815260206004820152603e60248201527f4552433732313a20617070726f76652063616c6c6572206973206e6f7420746f60448201527f6b656e206f776e6572206e6f7220617070726f76656420666f7220616c6c00006064820152608401610625565b6106e4838361166a565b505050565b60006106f36116d8565b5060fe5490565b6107043382611732565b6107765760405162461bcd60e51b815260206004820152602e60248201527f4552433732313a2063616c6c6572206973206e6f7420746f6b656e206f776e6560448201527f72206e6f7220617070726f7665640000000000000000000000000000000000006064820152608401610625565b6106e48383836117b0565b6107896116d8565b61079460668261198e565b6107a5576107a36066826119b3565b505b50565b6106e483838360405180602001604052806000815250611182565b6000818152609c60205260408120546001600160a01b0316806104d65760405162461bcd60e51b815260206004820152601860248201527f4552433732313a20696e76616c696420746f6b656e20494400000000000000006044820152606401610625565b3360009081526101016020526040808220905182919061084b908890889061397f565b9081526020016040518091039020848460405161086992919061397f565b9081526020016040518091039020541190505b949350505050565b60006001600160a01b0382166109025760405162461bcd60e51b815260206004820152602960248201527f4552433732313a2061646472657373207a65726f206973206e6f74206120766160448201527f6c6964206f776e657200000000000000000000000000000000000000000000006064820152608401610625565b506001600160a01b03166000908152609d602052604090205490565b6109266116d8565b61093060006119c8565b565b6000610946610941878061398f565b611a1a565b6109925760405162461bcd60e51b815260206004820152601060248201527f496e76616c6964205342542074797065000000000000000000000000000000006044820152606401610625565b60008761099f888061398f565b6109ac60208b018b61398f565b6109b960408d018d61398f565b8d60600160208101906109cc91906135bb565b6040516020016109e39897969594939291906139d6565b60408051601f19818403018152919052905080610a03608089018961398f565b610a1060a08b018b61398f565b604051602001610a24959493929190613a39565b60408051601f198184030181526020601f89018190048102840181019092528783529250610aa5918a918491908a908a908190840183828082843760009201919091525050604080516020601f8c018190048102820181019092528a815292508a9150899081908401838280828437600092019190915250611bc592505050565b610aaf878061398f565b610abc60208a018a61398f565b8b604051602001610ad1959493929190613a6f565b60408051601f198184030181529190529050610b7081610af460808a018a61398f565b8080601f016020809104026020016040519081016040528093929190818152602001838380828437600092019190915250610b369250505060a08b018b61398f565b8080601f016020809104026020016040519081016040528093929190818152602001838380828437600092019190915250611c9492505050565b506101016000610b866080890160608a016135bb565b6001600160a01b031681526020810191909152604001600020610ba9878061398f565b604051610bb792919061397f565b9081526020016040518091039020868060200190610bd5919061398f565b604051610be392919061397f565b908152602001604051809103902054600014610c415760405162461bcd60e51b815260206004820152601460248201527f416c726561647920636c61696d656420747970650000000000000000000000006044820152606401610625565b610c4f60fe80546001019055565b6000610c5a60fe5490565b9050610c75610c6f6080890160608a016135bb565b82611e40565b610cc081610c8660408a018a61398f565b8080601f016020809104026020016040519081016040528093929190818152602001838380828437600092019190915250611e5a92505050565b806101016000610cd660808b0160608c016135bb565b6001600160a01b031681526020810191909152604001600020610cf9898061398f565b604051610d0792919061397f565b9081526020016040518091039020888060200190610d25919061398f565b604051610d3392919061397f565b90815260405190819003602001902055610d4d878061398f565b60008381526101026020526040902091610d68919083613b05565b50610d76602088018861398f565b60008381526101026020526040902060010191610d94919083613b05565b50610da560808801606089016135bb565b6001600160a01b03167fb383543c70ed44f2b690ec837b9f2cbb2b0e346d0eb00c5f470c424777013ed982610dda8a8061398f565b604051610de993929190613bef565b60405180910390a2610e29816101036000610e0a60808c0160608d016135bb565b6001600160a01b03168152602081019190915260400160002090611efc565b50610e3c610e37888061398f565b611f08565b807fa109ba539900bf1b633f956d63c96fc89b814c7287f7aa50a9216d0b55657207610e6b60408a018a61398f565b604051610e79929190613c09565b60405180910390a2979650505050505050565b610e946116d8565b610e9f60668261198e565b610eeb5760405162461bcd60e51b815260206004820152601460248201527f556e7265676973746572656420616464726573730000000000000000000000006044820152606401610625565b6107a3606682611f92565b600054610100900460ff1615808015610f165750600054600160ff909116105b80610f305750303b158015610f30575060005460ff166001145b610fa25760405162461bcd60e51b815260206004820152602e60248201527f496e697469616c697a61626c653a20636f6e747261637420697320616c72656160448201527f647920696e697469616c697a65640000000000000000000000000000000000006064820152608401610625565b6000805460ff191660011790558015610fc5576000805461ff0019166101001790555b6110396040518060400160405280600a81526020017f56657269646120534254000000000000000000000000000000000000000000008152506040518060400160405280600481526020017f5653425400000000000000000000000000000000000000000000000000000000815250611fa7565b61104161201c565b80156107a5576000805461ff0019169055604051600181527f7f26b83ff96e1f2b6a682f133852f6798a09c465da95921460cefb38474024989060200160405180910390a150565b6060600061109633610884565b905060008167ffffffffffffffff8111156110b3576110b36137b1565b6040519080825280602002602001820160405280156110dc578160200160208202803683370190505b50905060005b8281101561113357336000908152610103602052604090206111049082612097565b82828151811061111657611116613c1d565b60209081029190910101528061112b81613c49565b9150506110e2565b5092915050565b6060609b80546104eb90613945565b6107a33383836120a3565b600080611160836107c3565b90506001600160a01b0381166111795750600092915050565b50600192915050565b61118c3383611732565b6111fe5760405162461bcd60e51b815260206004820152602e60248201527f4552433732313a2063616c6c6572206973206e6f7420746f6b656e206f776e6560448201527f72206e6f7220617070726f7665640000000000000000000000000000000000006064820152608401610625565b61120a84848484612171565b50505050565b60606104d6826121ef565b60608061122783611606565b60008381526101026020526040902080546001820190829061124890613945565b80601f016020809104026020016040519081016040528092919081815260200182805461127490613945565b80156112c15780601f10611296576101008083540402835291602001916112c1565b820191906000526020600020905b8154815290600101906020018083116112a457829003601f168201915b505050505091508080546112d490613945565b80601f016020809104026020016040519081016040528092919081815260200182805461130090613945565b801561134d5780601f106113225761010080835404028352916020019161134d565b820191906000526020600020905b81548152906001019060200180831161133057829003601f168201915b5050505050905091509150915091565b6060600061136b60666122f7565b905060008167ffffffffffffffff811115611388576113886137b1565b6040519080825280602002602001820160405280156113b1578160200160208202803683370190505b50905060005b82811015611133576113ca606682612097565b8282815181106113dc576113dc613c1d565b6001600160a01b0390921660209283029190910190910152806113fe81613c49565b9150506113b7565b61140e6116d8565b6001600160a01b03811661148a5760405162461bcd60e51b815260206004820152602660248201527f4f776e61626c653a206e6577206f776e657220697320746865207a65726f206160448201527f64647265737300000000000000000000000000000000000000000000000000006064820152608401610625565b6107a5816119c8565b600061149e826107c3565b9050336001600160a01b03821614806114c157506033546001600160a01b031633145b61150d5760405162461bcd60e51b815260206004820152601160248201527f496e76616c6964206f7065726174696f6e0000000000000000000000000000006044820152606401610625565b61151682612301565b6000828152610102602090815260408083206001600160a01b03851684526101039092529091206115479084612341565b506001600160a01b03821660009081526101016020526040908190209051611570908390613c62565b90815260200160405180910390208160010160405161158f9190613c62565b90815260408051602092819003830190206000908190558581526101029092528120906115bc828261343c565b6115ca60018301600061343c565b505060405183815233907fc643619513d946ade440841d379d0a1e84cfdd3610c6e1b1bad092959cb2d4519060200160405180910390a2505050565b6000818152609c60205260409020546001600160a01b03166107a55760405162461bcd60e51b815260206004820152601860248201527f4552433732313a20696e76616c696420746f6b656e20494400000000000000006044820152606401610625565b6000818152609e6020526040902080546001600160a01b0319166001600160a01b038416908117909155819061169f826107c3565b6001600160a01b03167f8c5be1e5ebec7d5bd14f71427d1e84f3dd0314c0f7b2291e5b200ac8c7c3b92560405160405180910390a45050565b6033546001600160a01b031633146109305760405162461bcd60e51b815260206004820181905260248201527f4f776e61626c653a2063616c6c6572206973206e6f7420746865206f776e65726044820152606401610625565b60008061173e836107c3565b9050806001600160a01b0316846001600160a01b0316148061178557506001600160a01b038082166000908152609f602090815260408083209388168352929052205460ff165b8061087c5750836001600160a01b031661179e8461056e565b6001600160a01b031614949350505050565b826001600160a01b03166117c3826107c3565b6001600160a01b03161461183f5760405162461bcd60e51b815260206004820152602560248201527f4552433732313a207472616e736665722066726f6d20696e636f72726563742060448201527f6f776e65720000000000000000000000000000000000000000000000000000006064820152608401610625565b6001600160a01b0382166118ba5760405162461bcd60e51b8152602060048201526024808201527f4552433732313a207472616e7366657220746f20746865207a65726f2061646460448201527f72657373000000000000000000000000000000000000000000000000000000006064820152608401610625565b6118c583838361234d565b6118d060008261166a565b6001600160a01b0383166000908152609d602052604081208054600192906118f9908490613cd8565b90915550506001600160a01b0382166000908152609d60205260408120805460019290611927908490613ceb565b90915550506000818152609c602052604080822080546001600160a01b0319166001600160a01b0386811691821790925591518493918716917fddf252ad1be2c89b69c2b068fc378daa952ba7f163c4a11628f55a4df523b3ef91a46106e48383836123b6565b6001600160a01b038116600090815260018301602052604081205415155b9392505050565b60006119ac836001600160a01b038416612446565b603380546001600160a01b038381166001600160a01b0319831681179093556040519116919082907f8be0079c531659141344cd1fd0a4f28419497f9722a3daafe3b4186f6b6457e090600090a35050565b60008060019050611a6484848080601f01602080910402602001604051908101604052809392919081815260200183838082843760009201919091525060ff939250506124959050565b6119ac57600084848080601f01602080910402602001604051908101604052809392919081815260200183838082843760009201829052509394505050505b815181108015611ab05750825b15611bbc57606160f81b828281518110611acc57611acc613c1d565b01602001516001600160f81b03191610801590611b0d5750607a60f81b828281518110611afb57611afb613c1d565b01602001516001600160f81b03191611155b158015611b6f5750603060f81b828281518110611b2c57611b2c613c1d565b01602001516001600160f81b03191610801590611b6d5750603960f81b828281518110611b5b57611b5b613c1d565b01602001516001600160f81b03191611155b155b8015611ba05750818181518110611b8857611b88613c1d565b6020910101516001600160f81b031916602d60f81b14155b15611baa57600092505b80611bb481613c49565b915050611aa3565b50509392505050565b6001600160a01b0384166000908152606560209081526040808320549051909291611bf4918791859101613cfe565b60408051601f198184030181526001808452838301909252925060009190602080830190803683370190505090508681600081518110611c3657611c36613c1d565b60200260200101906001600160a01b031690816001600160a01b031681525050611c62828686846124c2565b6001600160a01b0387166000908152606560205260408120805491611c8683613c49565b919050555050505050505050565b6000611ca060666122f7565b11611ced5760405162461bcd60e51b815260206004820152601360248201527f4e6f207369676e6572732070726f7669646564000000000000000000000000006044820152606401610625565b825160208401206000611d00828561266e565b90506000611d16826001600160a01b0316612692565b90506000805b611d2660666122f7565b81108015611d32575081155b15611dd7576000611d44606683612097565b90506000611d5a826001600160a01b0316612692565b905060008186604051602001611d71929190613d20565b60408051601f19818403018152919052805160208201209091506000611d97828c61266e565b9050846001600160a01b0316816001600160a01b031603611dc057600196505050505050611dd7565b85611dca81613c49565b9650505050505050611d1c565b81611e365760405162461bcd60e51b815260206004820152602960248201527f44617461206973206e6f74207369676e656420627920612076616c696420736960448201526819db9a5b99c811125160ba1b6064820152608401610625565b5050505050505050565b6107a3828260405180602001604052806000815250612702565b6000828152609c60205260409020546001600160a01b0316611ee45760405162461bcd60e51b815260206004820152602e60248201527f45524337323155524953746f726167653a2055524920736574206f66206e6f6e60448201527f6578697374656e7420746f6b656e0000000000000000000000000000000000006064820152608401610625565b600082815260cc602052604090206106e48282613d4f565b60006119ac8383612446565b611f4b82828080601f01602080910402602001604051908101604052809392919081815260200183838082843760009201919091525060ff939250506124959050565b6107a3576106e482828080601f01602080910402602001604051908101604052809392919081815260200183838082843760009201919091525060ff939250506127809050565b60006119ac836001600160a01b0384166127da565b600054610100900460ff166120125760405162461bcd60e51b815260206004820152602b60248201527f496e697469616c697a61626c653a20636f6e7472616374206973206e6f74206960448201526a6e697469616c697a696e6760a81b6064820152608401610625565b6107a382826128cd565b600054610100900460ff166120875760405162461bcd60e51b815260206004820152602b60248201527f496e697469616c697a61626c653a20636f6e7472616374206973206e6f74206960448201526a6e697469616c697a696e6760a81b6064820152608401610625565b61208f612951565b6109306129c4565b60006119ac8383612a2f565b816001600160a01b0316836001600160a01b0316036121045760405162461bcd60e51b815260206004820152601960248201527f4552433732313a20617070726f766520746f2063616c6c6572000000000000006044820152606401610625565b6001600160a01b038381166000818152609f6020908152604080832094871680845294825291829020805460ff191686151590811790915591519182527f17307eab39ab6107e8899845ad3d59bd9653f200f220920489ca2b5937696c31910160405180910390a3505050565b61217c8484846117b0565b61218884848484612a59565b61120a5760405162461bcd60e51b815260206004820152603260248201527f4552433732313a207472616e7366657220746f206e6f6e20455243373231526560448201527131b2b4bb32b91034b6b83632b6b2b73a32b960711b6064820152608401610625565b60606121fa82611606565b600082815260cc60205260408120805461221390613945565b80601f016020809104026020016040519081016040528092919081815260200182805461223f90613945565b801561228c5780601f106122615761010080835404028352916020019161228c565b820191906000526020600020905b81548152906001019060200180831161226f57829003601f168201915b5050505050905060006122aa60408051602081019091526000815290565b905080516000036122bc575092915050565b8151156122ee5780826040516020016122d6929190613d20565b60405160208183030381529060405292505050919050565b61087c84612ba2565b60006104d6825490565b61230a81612c15565b600081815260cc60205260409020805461232390613945565b1590506107a557600081815260cc602052604081206107a59161343c565b60006119ac83836127da565b6001600160a01b038316158061236a57506001600160a01b038216155b6106e45760405162461bcd60e51b815260206004820152601e60248201527f4572723a20746f6b656e207472616e7366657220697320424c4f434b454400006044820152606401610625565b6001600160a01b0382166123fc576040518181527ff27b6ce5b2f5e68ddb2fd95a8a909d4ecf1daaac270935fff052feacb24f18429060200160405180910390a1505050565b6001600160a01b03821661dead146106e4576040518181527f032bc66be43dbccb7487781d168eb7bda224628a3b2c3388bdf69b532a3a16119060200160405180910390a1505050565b600081815260018301602052604081205461248d575081546001818101845560008481526020808220909301849055845484825282860190935260409020919091556104d6565b5060006104d6565b600082600101826040516124a99190613e0f565b9081526040519081900360200190205415159392505050565b60008151116125135760405162461bcd60e51b815260206004820152601360248201527f4e6f207369676e6572732070726f7669646564000000000000000000000000006044820152606401610625565b835160208501206000612526828661266e565b9050600061253c826001600160a01b0316612692565b90506000805b855181108015612550575081155b1561260457600086828151811061256957612569613c1d565b602002602001015190506000612587826001600160a01b0316612692565b90506000818660405160200161259e929190613d20565b60408051601f198184030181529190528051602082012090915060006125c4828d61266e565b9050846001600160a01b0316816001600160a01b0316036125ed57600196505050505050612604565b856125f781613c49565b9650505050505050612542565b816126635760405162461bcd60e51b815260206004820152602960248201527f44617461206973206e6f74207369676e656420627920612076616c696420736960448201526819db9a5b99c811125160ba1b6064820152608401610625565b505050505050505050565b600080600061267d8585612cc4565b9150915061268a81612d09565b509392505050565b6060816000036126d557505060408051808201909152600481527f3078303000000000000000000000000000000000000000000000000000000000602082015290565b8160005b81156126f857806126e981613c49565b915050600882901c91506126d9565b61087c8482612ebf565b61270c8383613084565b6127196000848484612a59565b6106e45760405162461bcd60e51b815260206004820152603260248201527f4552433732313a207472616e7366657220746f206e6f6e20455243373231526560448201527131b2b4bb32b91034b6b83632b6b2b73a32b960711b6064820152608401610625565b600061278c8383612495565b61248d578254600181018455600084815260209020016127ac8382613d4f565b50825460405160018501906127c2908590613e0f565b908152604051908190036020019020555060016104d6565b600081815260018301602052604081205480156128c35760006127fe600183613cd8565b855490915060009061281290600190613cd8565b905081811461287757600086600001828154811061283257612832613c1d565b906000526020600020015490508087600001848154811061285557612855613c1d565b6000918252602080832090910192909255918252600188019052604090208390555b855486908061288857612888613e2b565b6001900381819060005260206000200160009055905585600101600086815260200190815260200160002060009055600193505050506104d6565b60009150506104d6565b600054610100900460ff166129385760405162461bcd60e51b815260206004820152602b60248201527f496e697469616c697a61626c653a20636f6e7472616374206973206e6f74206960448201526a6e697469616c697a696e6760a81b6064820152608401610625565b609a6129448382613d4f565b50609b6106e48282613d4f565b600054610100900460ff166129bc5760405162461bcd60e51b815260206004820152602b60248201527f496e697469616c697a61626c653a20636f6e7472616374206973206e6f74206960448201526a6e697469616c697a696e6760a81b6064820152608401610625565b6109306131da565b600054610100900460ff166109305760405162461bcd60e51b815260206004820152602b60248201527f496e697469616c697a61626c653a20636f6e7472616374206973206e6f74206960448201526a6e697469616c697a696e6760a81b6064820152608401610625565b6000826000018281548110612a4657612a46613c1d565b9060005260206000200154905092915050565b60006001600160a01b0384163b15612b9a57604051630a85bd0160e11b81526001600160a01b0385169063150b7a0290612a9d903390899088908890600401613e41565b6020604051808303816000875af1925050508015612ad8575060408051601f3d908101601f19168201909252612ad591810190613e7d565b60015b612b80573d808015612b06576040519150601f19603f3d011682016040523d82523d6000602084013e612b0b565b606091505b508051600003612b785760405162461bcd60e51b815260206004820152603260248201527f4552433732313a207472616e7366657220746f206e6f6e20455243373231526560448201527131b2b4bb32b91034b6b83632b6b2b73a32b960711b6064820152608401610625565b805181602001fd5b6001600160e01b031916630a85bd0160e11b14905061087c565b50600161087c565b6060612bad82611606565b6000612bc460408051602081019091526000815290565b90506000815111612be457604051806020016040528060008152506119ac565b80612bee8461324e565b604051602001612bff929190613d20565b6040516020818303038152906040529392505050565b6000612c20826107c3565b9050612c2e8160008461234d565b612c3960008361166a565b6001600160a01b0381166000908152609d60205260408120805460019290612c62908490613cd8565b90915550506000828152609c602052604080822080546001600160a01b0319169055518391906001600160a01b038416907fddf252ad1be2c89b69c2b068fc378daa952ba7f163c4a11628f55a4df523b3ef908390a46107a3816000846123b6565b6000808251604103612cfa5760208301516040840151606085015160001a612cee8782858561334f565b94509450505050612d02565b506000905060025b9250929050565b6000816004811115612d1d57612d1d613e9a565b03612d255750565b6001816004811115612d3957612d39613e9a565b03612d865760405162461bcd60e51b815260206004820152601860248201527f45434453413a20696e76616c6964207369676e617475726500000000000000006044820152606401610625565b6002816004811115612d9a57612d9a613e9a565b03612de75760405162461bcd60e51b815260206004820152601f60248201527f45434453413a20696e76616c6964207369676e6174757265206c656e677468006044820152606401610625565b6003816004811115612dfb57612dfb613e9a565b03612e535760405162461bcd60e51b815260206004820152602260248201527f45434453413a20696e76616c6964207369676e6174757265202773272076616c604482015261756560f01b6064820152608401610625565b6004816004811115612e6757612e67613e9a565b036107a55760405162461bcd60e51b815260206004820152602260248201527f45434453413a20696e76616c6964207369676e6174757265202776272076616c604482015261756560f01b6064820152608401610625565b60606000612ece836002613eb0565b612ed9906002613ceb565b67ffffffffffffffff811115612ef157612ef16137b1565b6040519080825280601f01601f191660200182016040528015612f1b576020820181803683370190505b509050600360fc1b81600081518110612f3657612f36613c1d565b60200101906001600160f81b031916908160001a9053507f780000000000000000000000000000000000000000000000000000000000000081600181518110612f8157612f81613c1d565b60200101906001600160f81b031916908160001a9053506000612fa5846002613eb0565b612fb0906001613ceb565b90505b6001811115613035577f303132333435363738396162636465660000000000000000000000000000000085600f1660108110612ff157612ff1613c1d565b1a60f81b82828151811061300757613007613c1d565b60200101906001600160f81b031916908160001a90535060049490941c9361302e81613ec7565b9050612fb3565b5083156119ac5760405162461bcd60e51b815260206004820181905260248201527f537472696e67733a20686578206c656e67746820696e73756666696369656e746044820152606401610625565b6001600160a01b0382166130da5760405162461bcd60e51b815260206004820181905260248201527f4552433732313a206d696e7420746f20746865207a65726f20616464726573736044820152606401610625565b6000818152609c60205260409020546001600160a01b03161561313f5760405162461bcd60e51b815260206004820152601c60248201527f4552433732313a20746f6b656e20616c7265616479206d696e746564000000006044820152606401610625565b61314b6000838361234d565b6001600160a01b0382166000908152609d60205260408120805460019290613174908490613ceb565b90915550506000818152609c602052604080822080546001600160a01b0319166001600160a01b03861690811790915590518392907fddf252ad1be2c89b69c2b068fc378daa952ba7f163c4a11628f55a4df523b3ef908290a46107a3600083836123b6565b600054610100900460ff166132455760405162461bcd60e51b815260206004820152602b60248201527f496e697469616c697a61626c653a20636f6e7472616374206973206e6f74206960448201526a6e697469616c697a696e6760a81b6064820152608401610625565b610930336119c8565b6060816000036132755750506040805180820190915260018152600360fc1b602082015290565b8160005b811561329f578061328981613c49565b91506132989050600a83613ef4565b9150613279565b60008167ffffffffffffffff8111156132ba576132ba6137b1565b6040519080825280601f01601f1916602001820160405280156132e4576020820181803683370190505b5090505b841561087c576132f9600183613cd8565b9150613306600a86613f08565b613311906030613ceb565b60f81b81838151811061332657613326613c1d565b60200101906001600160f81b031916908160001a905350613348600a86613ef4565b94506132e8565b6000807f7fffffffffffffffffffffffffffffff5d576e7357a4501ddfe92f46681b20a08311156133865750600090506003613433565b8460ff16601b1415801561339e57508460ff16601c14155b156133af5750600090506004613433565b6040805160008082526020820180845289905260ff881692820192909252606081018690526080810185905260019060a0016020604051602081039080840390855afa158015613403573d6000803e3d6000fd5b5050604051601f1901519150506001600160a01b03811661342c57600060019250925050613433565b9150600090505b94509492505050565b50805461344890613945565b6000825580601f10613458575050565b601f0160209004906000526020600020908101906107a591905b808211156134865760008155600101613472565b5090565b6001600160e01b0319811681146107a557600080fd5b6000602082840312156134b257600080fd5b81356119ac8161348a565b60005b838110156134d85781810151838201526020016134c0565b50506000910152565b600081518084526134f98160208601602086016134bd565b601f01601f19169290920160200192915050565b6020815260006119ac60208301846134e1565b60006020828403121561353257600080fd5b5035919050565b80356001600160a01b038116811461355057600080fd5b919050565b6000806040838503121561356857600080fd5b61357183613539565b946020939093013593505050565b60008060006060848603121561359457600080fd5b61359d84613539565b92506135ab60208501613539565b9150604084013590509250925092565b6000602082840312156135cd57600080fd5b6119ac82613539565b60008083601f8401126135e857600080fd5b50813567ffffffffffffffff81111561360057600080fd5b602083019150836020828501011115612d0257600080fd5b6000806000806040858703121561362e57600080fd5b843567ffffffffffffffff8082111561364657600080fd5b613652888389016135d6565b9096509450602087013591508082111561366b57600080fd5b50613678878288016135d6565b95989497509550505050565b6000806000806000806080878903121561369d57600080fd5b6136a687613539565b9550602087013567ffffffffffffffff808211156136c357600080fd5b9088019060c0828b0312156136d757600080fd5b909550604088013590808211156136ed57600080fd5b6136f98a838b016135d6565b9096509450606089013591508082111561371257600080fd5b5061371f89828a016135d6565b979a9699509497509295939492505050565b6020808252825182820181905260009190848201906040850190845b818110156137695783518352928401929184019160010161374d565b50909695505050505050565b6000806040838503121561378857600080fd5b61379183613539565b9150602083013580151581146137a657600080fd5b809150509250929050565b634e487b7160e01b600052604160045260246000fd5b600080600080608085870312156137dd57600080fd5b6137e685613539565b93506137f460208601613539565b925060408501359150606085013567ffffffffffffffff8082111561381857600080fd5b818701915087601f83011261382c57600080fd5b81358181111561383e5761383e6137b1565b604051601f8201601f19908116603f01168101908382118183101715613866576138666137b1565b816040528281528a602084870101111561387f57600080fd5b82602086016020830137600060208483010152809550505050505092959194509250565b6040815260006138b660408301856134e1565b82810360208401526138c881856134e1565b95945050505050565b600080604083850312156138e457600080fd5b6138ed83613539565b91506138fb60208401613539565b90509250929050565b6020808252825182820181905260009190848201906040850190845b818110156137695783516001600160a01b031683529284019291840191600101613920565b600181811c9082168061395957607f821691505b60208210810361397957634e487b7160e01b600052602260045260246000fd5b50919050565b8183823760009101908152919050565b6000808335601e198436030181126139a657600080fd5b83018035915067ffffffffffffffff8211156139c157600080fd5b602001915036819003821315612d0257600080fd5b60006bffffffffffffffffffffffff19808b60601b168352888a60148501378883016014810160008152888a82375087810190506014810160008152868882375060609490941b1692909301601481019290925250602801979650505050505050565b60008651613a4b818460208b016134bd565b82018587823760009086019081528385823760009301928352509095945050505050565b848682376000858201602d60f81b8082528587600184013760019190950190810194909452505060601b6bffffffffffffffffffffffff191660028201526016019392505050565b601f8211156106e457600081815260208120601f850160051c81016020861015613ade5750805b601f850160051c820191505b81811015613afd57828155600101613aea565b505050505050565b67ffffffffffffffff831115613b1d57613b1d6137b1565b613b3183613b2b8354613945565b83613ab7565b6000601f841160018114613b655760008515613b4d5750838201355b600019600387901b1c1916600186901b178355613bbf565b600083815260209020601f19861690835b82811015613b965786850135825560209485019460019092019101613b76565b5086821015613bb35760001960f88860031b161c19848701351681555b505060018560011b0183555b5050505050565b81835281816020850137506000828201602090810191909152601f909101601f19169091010190565b8381526040602082015260006138c8604083018486613bc6565b60208152600061087c602083018486613bc6565b634e487b7160e01b600052603260045260246000fd5b634e487b7160e01b600052601160045260246000fd5b600060018201613c5b57613c5b613c33565b5060010190565b6000808354613c7081613945565b60018281168015613c885760018114613c9d57613ccc565b60ff1984168752821515830287019450613ccc565b8760005260208060002060005b85811015613cc35781548a820152908401908201613caa565b50505082870194505b50929695505050505050565b818103818111156104d6576104d6613c33565b808201808211156104d6576104d6613c33565b60008351613d108184602088016134bd565b9190910191825250602001919050565b60008351613d328184602088016134bd565b835190830190613d468183602088016134bd565b01949350505050565b815167ffffffffffffffff811115613d6957613d696137b1565b613d7d81613d778454613945565b84613ab7565b602080601f831160018114613db25760008415613d9a5750858301515b600019600386901b1c1916600185901b178555613afd565b600085815260208120601f198616915b82811015613de157888601518255948401946001909101908401613dc2565b5085821015613dff5787850151600019600388901b60f8161c191681555b5050505050600190811b01905550565b60008251613e218184602087016134bd565b9190910192915050565b634e487b7160e01b600052603160045260246000fd5b60006001600160a01b03808716835280861660208401525083604083015260806060830152613e7360808301846134e1565b9695505050505050565b600060208284031215613e8f57600080fd5b81516119ac8161348a565b634e487b7160e01b600052602160045260246000fd5b80820281158282048414176104d6576104d6613c33565b600081613ed657613ed6613c33565b506000190190565b634e487b7160e01b600052601260045260246000fd5b600082613f0357613f03613ede565b500490565b600082613f1757613f17613ede565b50069056fea26469706673582212206691f5a8ad3f1b9c47042a4e70efd44d8b1bb78d6779fcff159346ef9045704464736f6c63430008110033",
  "linkReferences": {},
  "deployedLinkReferences": {}
}