{
  "_format": "hh-sol-artifact-1",
  "contractName": "EthereumDIDRegistry",
  "sourceName": "contracts/EthereumDIDRegistry.sol",
  "abi": [
    {
      "anonymous": false,
      "inputs": [
        {
          "indexed": true,
          "internalType": "address",
          "name": "identity",
          "type": "address"
        },
        {
          "indexed": false,
          "internalType": "bytes32",
          "name": "name",
          "type": "bytes32"
        },
        {
          "indexed": false,
          "internalType": "bytes",
          "name": "value",
          "type": "bytes"
        },
        {
          "indexed": false,
          "internalType": "uint256",
          "name": "validTo",
          "type": "uint256"
        },
        {
          "indexed": false,
          "internalType": "uint256",
          "name": "previousChange",
          "type": "uint256"
        }
      ],
      "name": "DIDAttributeChanged",
      "type": "event"
    },
    {
      "anonymous": false,
      "inputs": [
        {
          "indexed": true,
          "internalType": "address",
          "name": "identity",
          "type": "address"
        },
        {
          "indexed": false,
          "internalType": "bytes32",
          "name": "delegateType",
          "type": "bytes32"
        },
        {
          "indexed": false,
          "internalType": "address",
          "name": "delegate",
          "type": "address"
        },
        {
          "indexed": false,
          "internalType": "uint256",
          "name": "validTo",
          "type": "uint256"
        },
        {
          "indexed": false,
          "internalType": "uint256",
          "name": "previousChange",
          "type": "uint256"
        }
      ],
      "name": "DIDDelegateChanged",
      "type": "event"
    },
    {
      "anonymous": false,
      "inputs": [
        {
          "indexed": true,
          "internalType": "address",
          "name": "identity",
          "type": "address"
        },
        {
          "indexed": false,
          "internalType": "address",
          "name": "owner",
          "type": "address"
        },
        {
          "indexed": false,
          "internalType": "uint256",
          "name": "previousChange",
          "type": "uint256"
        }
      ],
      "name": "DIDOwnerChanged",
      "type": "event"
    },
    {
      "inputs": [
        {
          "internalType": "address",
          "name": "identity",
          "type": "address"
        },
        {
          "internalType": "bytes32",
          "name": "delegateType",
          "type": "bytes32"
        },
        {
          "internalType": "address",
          "name": "delegate",
          "type": "address"
        },
        {
          "internalType": "uint256",
          "name": "validity",
          "type": "uint256"
        }
      ],
      "name": "addDelegate",
      "outputs": [],
      "stateMutability": "nonpayable",
      "type": "function"
    },
    {
      "inputs": [
        {
          "internalType": "address",
          "name": "identity",
          "type": "address"
        },
        {
          "internalType": "uint8",
          "name": "sigV",
          "type": "uint8"
        },
        {
          "internalType": "bytes32",
          "name": "sigR",
          "type": "bytes32"
        },
        {
          "internalType": "bytes32",
          "name": "sigS",
          "type": "bytes32"
        },
        {
          "internalType": "bytes32",
          "name": "delegateType",
          "type": "bytes32"
        },
        {
          "internalType": "address",
          "name": "delegate",
          "type": "address"
        },
        {
          "internalType": "uint256",
          "name": "validity",
          "type": "uint256"
        }
      ],
      "name": "addDelegateSigned",
      "outputs": [],
      "stateMutability": "nonpayable",
      "type": "function"
    },
    {
      "inputs": [
        {
          "internalType": "address",
          "name": "identity",
          "type": "address"
        },
        {
          "components": [
            {
              "internalType": "bytes32",
              "name": "delegateType",
              "type": "bytes32"
            },
            {
              "internalType": "address",
              "name": "delegate",
              "type": "address"
            },
            {
              "internalType": "uint256",
              "name": "validity",
              "type": "uint256"
            }
          ],
          "internalType": "struct EthereumDIDRegistry.DelegateParam[]",
          "name": "delegateParams",
          "type": "tuple[]"
        },
        {
          "components": [
            {
              "internalType": "bytes32",
              "name": "name",
              "type": "bytes32"
            },
            {
              "internalType": "bytes",
              "name": "value",
              "type": "bytes"
            },
            {
              "internalType": "uint256",
              "name": "validity",
              "type": "uint256"
            }
          ],
          "internalType": "struct EthereumDIDRegistry.AttributeParam[]",
          "name": "attributeParams",
          "type": "tuple[]"
        },
        {
          "components": [
            {
              "internalType": "address",
              "name": "identity",
              "type": "address"
            },
            {
              "internalType": "uint8",
              "name": "sigV",
              "type": "uint8"
            },
            {
              "internalType": "bytes32",
              "name": "sigR",
              "type": "bytes32"
            },
            {
              "internalType": "bytes32",
              "name": "sigS",
              "type": "bytes32"
            },
            {
              "internalType": "bytes32",
              "name": "delegateType",
              "type": "bytes32"
            },
            {
              "internalType": "address",
              "name": "delegate",
              "type": "address"
            },
            {
              "internalType": "uint256",
              "name": "validity",
              "type": "uint256"
            }
          ],
          "internalType": "struct EthereumDIDRegistry.DelegateParamSigned[]",
          "name": "signedDelegateParams",
          "type": "tuple[]"
        },
        {
          "components": [
            {
              "internalType": "address",
              "name": "identity",
              "type": "address"
            },
            {
              "internalType": "uint8",
              "name": "sigV",
              "type": "uint8"
            },
            {
              "internalType": "bytes32",
              "name": "sigR",
              "type": "bytes32"
            },
            {
              "internalType": "bytes32",
              "name": "sigS",
              "type": "bytes32"
            },
            {
              "internalType": "bytes32",
              "name": "name",
              "type": "bytes32"
            },
            {
              "internalType": "bytes",
              "name": "value",
              "type": "bytes"
            },
            {
              "internalType": "uint256",
              "name": "validity",
              "type": "uint256"
            }
          ],
          "internalType": "struct EthereumDIDRegistry.AttributeParamSigned[]",
          "name": "signedAttributeParams",
          "type": "tuple[]"
        }
      ],
      "name": "bulkAdd",
      "outputs": [],
      "stateMutability": "nonpayable",
      "type": "function"
    },
    {
      "inputs": [
        {
          "internalType": "address",
          "name": "identity",
          "type": "address"
        },
        {
          "components": [
            {
              "internalType": "bytes32",
              "name": "delegateType",
              "type": "bytes32"
            },
            {
              "internalType": "address",
              "name": "delegate",
              "type": "address"
            }
          ],
          "internalType": "struct EthereumDIDRegistry.RevokeDelegateParam[]",
          "name": "delegateParams",
          "type": "tuple[]"
        },
        {
          "components": [
            {
              "internalType": "bytes32",
              "name": "name",
              "type": "bytes32"
            },
            {
              "internalType": "bytes",
              "name": "value",
              "type": "bytes"
            }
          ],
          "internalType": "struct EthereumDIDRegistry.RevokeAttributeParam[]",
          "name": "attributeParams",
          "type": "tuple[]"
        },
        {
          "components": [
            {
              "internalType": "address",
              "name": "identity",
              "type": "address"
            },
            {
              "internalType": "uint8",
              "name": "sigV",
              "type": "uint8"
            },
            {
              "internalType": "bytes32",
              "name": "sigR",
              "type": "bytes32"
            },
            {
              "internalType": "bytes32",
              "name": "sigS",
              "type": "bytes32"
            },
            {
              "internalType": "bytes32",
              "name": "delegateType",
              "type": "bytes32"
            },
            {
              "internalType": "address",
              "name": "delegate",
              "type": "address"
            }
          ],
          "internalType": "struct EthereumDIDRegistry.RevokeDelegateParamSigned[]",
          "name": "signedDelegateParams",
          "type": "tuple[]"
        },
        {
          "components": [
            {
              "internalType": "address",
              "name": "identity",
              "type": "address"
            },
            {
              "internalType": "uint8",
              "name": "sigV",
              "type": "uint8"
            },
            {
              "internalType": "bytes32",
              "name": "sigR",
              "type": "bytes32"
            },
            {
              "internalType": "bytes32",
              "name": "sigS",
              "type": "bytes32"
            },
            {
              "internalType": "bytes32",
              "name": "name",
              "type": "bytes32"
            },
            {
              "internalType": "bytes",
              "name": "value",
              "type": "bytes"
            }
          ],
          "internalType": "struct EthereumDIDRegistry.RevokeAttributeParamSigned[]",
          "name": "signedAttributeParams",
          "type": "tuple[]"
        }
      ],
      "name": "bulkRevoke",
      "outputs": [],
      "stateMutability": "nonpayable",
      "type": "function"
    },
    {
      "inputs": [
        {
          "internalType": "address",
          "name": "identity",
          "type": "address"
        },
        {
          "internalType": "address",
          "name": "newOwner",
          "type": "address"
        }
      ],
      "name": "changeOwner",
      "outputs": [],
      "stateMutability": "nonpayable",
      "type": "function"
    },
    {
      "inputs": [
        {
          "internalType": "address",
          "name": "identity",
          "type": "address"
        },
        {
          "internalType": "uint8",
          "name": "sigV",
          "type": "uint8"
        },
        {
          "internalType": "bytes32",
          "name": "sigR",
          "type": "bytes32"
        },
        {
          "internalType": "bytes32",
          "name": "sigS",
          "type": "bytes32"
        },
        {
          "internalType": "address",
          "name": "newOwner",
          "type": "address"
        }
      ],
      "name": "changeOwnerSigned",
      "outputs": [],
      "stateMutability": "nonpayable",
      "type": "function"
    },
    {
      "inputs": [
        {
          "internalType": "address",
          "name": "",
          "type": "address"
        }
      ],
      "name": "changed",
      "outputs": [
        {
          "internalType": "uint256",
          "name": "",
          "type": "uint256"
        }
      ],
      "stateMutability": "view",
      "type": "function"
    },
    {
      "inputs": [
        {
          "internalType": "address",
          "name": "",
          "type": "address"
        },
        {
          "internalType": "bytes32",
          "name": "",
          "type": "bytes32"
        },
        {
          "internalType": "address",
          "name": "",
          "type": "address"
        }
      ],
      "name": "delegates",
      "outputs": [
        {
          "internalType": "uint256",
          "name": "",
          "type": "uint256"
        }
      ],
      "stateMutability": "view",
      "type": "function"
    },
    {
      "inputs": [
        {
          "internalType": "address",
          "name": "identity",
          "type": "address"
        }
      ],
      "name": "identityOwner",
      "outputs": [
        {
          "internalType": "address",
          "name": "",
          "type": "address"
        }
      ],
      "stateMutability": "view",
      "type": "function"
    },
    {
      "inputs": [
        {
          "internalType": "address",
          "name": "",
          "type": "address"
        }
      ],
      "name": "nonce",
      "outputs": [
        {
          "internalType": "uint256",
          "name": "",
          "type": "uint256"
        }
      ],
      "stateMutability": "view",
      "type": "function"
    },
    {
      "inputs": [
        {
          "internalType": "address",
          "name": "",
          "type": "address"
        }
      ],
      "name": "owners",
      "outputs": [
        {
          "internalType": "address",
          "name": "",
          "type": "address"
        }
      ],
      "stateMutability": "view",
      "type": "function"
    },
    {
      "inputs": [
        {
          "internalType": "address",
          "name": "identity",
          "type": "address"
        },
        {
          "internalType": "bytes32",
          "name": "name",
          "type": "bytes32"
        },
        {
          "internalType": "bytes",
          "name": "value",
          "type": "bytes"
        }
      ],
      "name": "revokeAttribute",
      "outputs": [],
      "stateMutability": "nonpayable",
      "type": "function"
    },
    {
      "inputs": [
        {
          "internalType": "address",
          "name": "identity",
          "type": "address"
        },
        {
          "internalType": "uint8",
          "name": "sigV",
          "type": "uint8"
        },
        {
          "internalType": "bytes32",
          "name": "sigR",
          "type": "bytes32"
        },
        {
          "internalType": "bytes32",
          "name": "sigS",
          "type": "bytes32"
        },
        {
          "internalType": "bytes32",
          "name": "name",
          "type": "bytes32"
        },
        {
          "internalType": "bytes",
          "name": "value",
          "type": "bytes"
        }
      ],
      "name": "revokeAttributeSigned",
      "outputs": [],
      "stateMutability": "nonpayable",
      "type": "function"
    },
    {
      "inputs": [
        {
          "internalType": "address",
          "name": "identity",
          "type": "address"
        },
        {
          "internalType": "bytes32",
          "name": "delegateType",
          "type": "bytes32"
        },
        {
          "internalType": "address",
          "name": "delegate",
          "type": "address"
        }
      ],
      "name": "revokeDelegate",
      "outputs": [],
      "stateMutability": "nonpayable",
      "type": "function"
    },
    {
      "inputs": [
        {
          "internalType": "address",
          "name": "identity",
          "type": "address"
        },
        {
          "internalType": "uint8",
          "name": "sigV",
          "type": "uint8"
        },
        {
          "internalType": "bytes32",
          "name": "sigR",
          "type": "bytes32"
        },
        {
          "internalType": "bytes32",
          "name": "sigS",
          "type": "bytes32"
        },
        {
          "internalType": "bytes32",
          "name": "delegateType",
          "type": "bytes32"
        },
        {
          "internalType": "address",
          "name": "delegate",
          "type": "address"
        }
      ],
      "name": "revokeDelegateSigned",
      "outputs": [],
      "stateMutability": "nonpayable",
      "type": "function"
    },
    {
      "inputs": [
        {
          "internalType": "address",
          "name": "identity",
          "type": "address"
        },
        {
          "internalType": "bytes32",
          "name": "name",
          "type": "bytes32"
        },
        {
          "internalType": "bytes",
          "name": "value",
          "type": "bytes"
        },
        {
          "internalType": "uint256",
          "name": "validity",
          "type": "uint256"
        }
      ],
      "name": "setAttribute",
      "outputs": [],
      "stateMutability": "nonpayable",
      "type": "function"
    },
    {
      "inputs": [
        {
          "internalType": "address",
          "name": "identity",
          "type": "address"
        },
        {
          "internalType": "uint8",
          "name": "sigV",
          "type": "uint8"
        },
        {
          "internalType": "bytes32",
          "name": "sigR",
          "type": "bytes32"
        },
        {
          "internalType": "bytes32",
          "name": "sigS",
          "type": "bytes32"
        },
        {
          "internalType": "bytes32",
          "name": "name",
          "type": "bytes32"
        },
        {
          "internalType": "bytes",
          "name": "value",
          "type": "bytes"
        },
        {
          "internalType": "uint256",
          "name": "validity",
          "type": "uint256"
        }
      ],
      "name": "setAttributeSigned",
      "outputs": [],
      "stateMutability": "nonpayable",
      "type": "function"
    },
    {
      "inputs": [
        {
          "internalType": "address",
          "name": "identity",
          "type": "address"
        },
        {
          "internalType": "bytes32",
          "name": "delegateType",
          "type": "bytes32"
        },
        {
          "internalType": "address",
          "name": "delegate",
          "type": "address"
        }
      ],
      "name": "validDelegate",
      "outputs": [
        {
          "internalType": "bool",
          "name": "",
          "type": "bool"
        }
      ],
      "stateMutability": "view",
      "type": "function"
    }
  ],
  "bytecode": "0x608060405234801561001057600080fd5b5061219e806100206000396000f3fe608060405234801561001057600080fd5b50600436106101355760003560e01c80638733d4e8116100b2578063a7068d6611610081578063e476af5c11610066578063e476af5c14610324578063f00d4b5d14610337578063f96d0f9f1461034a57600080fd5b8063a7068d66146102fe578063accf76ab1461031157600080fd5b80638733d4e8146102b257806393072684146102c55780639c2c1b2b146102d85780639f1e0cba146102eb57600080fd5b8063240cf1fa1161010957806370ae92d2116100ee57806370ae92d21461026c5780637ad4b0a41461028c57806380b29f7c1461029f57600080fd5b8063240cf1fa146101e7578063622b2a3c146101fa57600080fd5b8062c023da1461013a578063022914a71461014f5780630d44625b14610195578063123b5e98146101d4575b600080fd5b61014d610148366004611b2e565b61036a565b005b61017861015d36600461180b565b6000602081905290815260409020546001600160a01b031681565b6040516001600160a01b0390911681526020015b60405180910390f35b6101c66101a3366004611aae565b600160209081526000938452604080852082529284528284209052825290205481565b60405190815260200161018c565b61014d6101e2366004611d7e565b61037b565b61014d6101f5366004611be4565b610407565b61025c610208366004611aae565b6001600160a01b039283166000908152600160209081526040808320815180840196909652815180870384018152958201825285519583019590952083529381528382209290941681529252902054421090565b604051901515815260200161018c565b6101c661027a36600461180b565b60036020526000908152604090205481565b61014d61029a366004611b85565b6104e9565b61014d6102ad366004611aae565b6104fc565b6101786102c036600461180b565b610508565b61014d6102d3366004611c3b565b610538565b61014d6102e6366004611c9a565b610623565b61014d6102f9366004611968565b610711565b61014d61030c366004611aea565b61072d565b61014d61031f366004611860565b61073a565b61014d610332366004611d04565b61075e565b61014d61034536600461182d565b6107dd565b6101c661035836600461180b565b60026020526000908152604090205481565b610376833384846107ec565b505050565b6000601960f81b81306003826103908d610508565b6001600160a01b03166001600160a01b03168152602001908152602001600020548b8888886040516020016103cc989796959493929190611ee0565b6040516020818303038152906040528051906020012090506103fd886103f58a8a8a8a876108c0565b8686866109bf565b5050505050505050565b6000601960f81b813060038261041c8b610508565b6001600160a01b0316815260208082019290925260409081016000205481516001600160f81b0319968716818501529490951660218501526bffffffffffffffffffffffff19606093841b8116602286015260368501959095528a831b851660568501527f6368616e67654f776e6572000000000000000000000000000000000000000000606a8501529186901b90931660758301528051606981840301815260899092019052805191012090506104e1866104db81888888876108c0565b84610aa3565b505050505050565b6104f684338585856109bf565b50505050565b61037683338484610b9f565b6001600160a01b0380821660009081526020819052604081205490911680156105315792915050565b5090919050565b6000601960f81b813060038261054d8c610508565b6001600160a01b0316815260208082019290925260409081016000205481516001600160f81b0319968716818501529490951660218501526bffffffffffffffffffffffff19606093841b8116602286015260368501959095528b831b851660568501527f7265766f6b6544656c6567617465000000000000000000000000000000000000606a850152607884018890529186901b90931660988301528051608c81840301815260ac90920190528051910120905061061a8761061381898989876108c0565b8585610b9f565b50505050505050565b6000601960f81b81306003826106388d610508565b6001600160a01b0316815260208082019290925260409081016000205490516001600160f81b031995861692810192909252929093166021840152606090811b6bffffffffffffffffffffffff19908116602285015260368401929092528a811b821660568401527f61646444656c6567617465000000000000000000000000000000000000000000606a8401526075830187905285901b16609582015260a9810183905260c9016040516020818303038152906040528051906020012090506103fd886107098a8a8a8a876108c0565b868686610c99565b61071c858585610db4565b6107268282610e7b565b5050505050565b6104f68433858585610c99565b6107478989898989611030565b61075384848484611195565b505050505050505050565b6000601960f81b81306003826107738c610508565b6001600160a01b03166001600160a01b03168152602001908152602001600020548a87876040516020016107ad9796959493929190611e4a565b60405160208183030381529060405280519060200120905061061a876107d689898989876108c0565b85856107ec565b6107e8823383610aa3565b5050565b83836107f782610508565b6001600160a01b0316816001600160a01b0316146108485760405162461bcd60e51b81526020600482015260096024820152683130b22fb0b1ba37b960b91b60448201526064015b60405180910390fd5b6001600160a01b0386166000818152600260205260408082205490517f18ab6b2ae3d64306c00ce663125f2bd680e441a098de1635bd7ad8b0d44965e49261089592899289929190611f7d565b60405180910390a25050506001600160a01b0390921660009081526002602052604090204390555050565b6040805160008082526020820180845284905260ff8716928201929092526060810185905260808101849052819060019060a0016020604051602081039080840390855afa158015610916573d6000803e3d6000fd5b50505060206040510351905061092b87610508565b6001600160a01b0316816001600160a01b03161461098b5760405162461bcd60e51b815260206004820152600d60248201527f6261645f7369676e617475726500000000000000000000000000000000000000604482015260640161083f565b6001600160a01b03811660009081526003602052604081208054916109af8361210b565b9091555090979650505050505050565b84846109ca82610508565b6001600160a01b0316816001600160a01b031614610a165760405162461bcd60e51b81526020600482015260096024820152683130b22fb0b1ba37b960b91b604482015260640161083f565b6001600160a01b0387167f18ab6b2ae3d64306c00ce663125f2bd680e441a098de1635bd7ad8b0d44965e48686610a4d87426120c7565b6001600160a01b038c1660009081526002602052604090819020549051610a779493929190611f7d565b60405180910390a25050506001600160a01b039093166000908152600260205260409020439055505050565b8282610aae82610508565b6001600160a01b0316816001600160a01b031614610afa5760405162461bcd60e51b81526020600482015260096024820152683130b22fb0b1ba37b960b91b604482015260640161083f565b6001600160a01b0385811660008181526020818152604080832080547fffffffffffffffffffffffff000000000000000000000000000000000000000016958916958617905560028252918290205482519485529084015290917f38a5a6e68f30ed1ab45860a4afb34bcb2fc00f22ca462d249b8a8d40cda6f7a3910160405180910390a2505050506001600160a01b03166000908152600260205260409020439055565b8383610baa82610508565b6001600160a01b0316816001600160a01b031614610bf65760405162461bcd60e51b81526020600482015260096024820152683130b22fb0b1ba37b960b91b604482015260640161083f565b6001600160a01b03868116600081815260016020908152604080832081518084018b90528251808203850181528184018085528151918601919091208652918452828520968a16808652968452828520429081905586865260029094529190932054928990526060810194909452608084015260a0830152907f5a5084339536bcab65f20799fcc58724588145ca054bd2be626174b27ba156f79060c001610895565b8484610ca482610508565b6001600160a01b0316816001600160a01b031614610cf05760405162461bcd60e51b81526020600482015260096024820152683130b22fb0b1ba37b960b91b604482015260640161083f565b610cfa83426120c7565b6001600160a01b03888116600081815260016020908152604080832081518084018d9052825180820385018152908301835280519084012084528252808320948a16835293905291909120919091557f5a5084339536bcab65f20799fcc58724588145ca054bd2be626174b27ba156f78686610d7687426120c7565b6001600160a01b038c811660009081526002602090815260409182902054825196875294909216918501919091528301526060820152608001610a77565b60005b8251811015610e1757610e0584848381518110610dd657610dd661213c565b602002602001015160000151858481518110610df457610df461213c565b6020026020010151602001516104fc565b80610e0f8161210b565b915050610db7565b5060005b81518110156104f657610e6984838381518110610e3a57610e3a61213c565b602002602001015160000151848481518110610e5857610e5861213c565b60200260200101516020015161036a565b80610e738161210b565b915050610e1b565b60005b8251811015610f5557610f43838281518110610e9c57610e9c61213c565b602002602001015160000151848381518110610eba57610eba61213c565b602002602001015160200151858481518110610ed857610ed861213c565b602002602001015160400151868581518110610ef657610ef661213c565b602002602001015160600151878681518110610f1457610f1461213c565b602002602001015160800151888781518110610f3257610f3261213c565b602002602001015160a00151610538565b80610f4d8161210b565b915050610e7e565b5060005b81518110156103765761101e828281518110610f7757610f7761213c565b602002602001015160000151838381518110610f9557610f9561213c565b602002602001015160200151848481518110610fb357610fb361213c565b602002602001015160400151858581518110610fd157610fd161213c565b602002602001015160600151868681518110610fef57610fef61213c565b60200260200101516080015187878151811061100d5761100d61213c565b602002602001015160a0015161075e565b806110288161210b565b915050610f59565b60005b838110156110b8576110a6868686848181106110515761105161213c565b9050606002016000013587878581811061106d5761106d61213c565b9050606002016020016020810190611085919061180b565b8888868181106110975761109761213c565b9050606002016040013561072d565b806110b08161210b565b915050611033565b5060005b818110156104e157611183868484848181106110da576110da61213c565b90506020028101906110ec9190612010565b358585858181106110ff576110ff61213c565b90506020028101906111119190612010565b61111f906020810190611fa9565b8080601f0160208091040260200160405190810160405280939291908181526020018383808284376000920191909152508992508891508790508181106111685761116861213c565b905060200281019061117a9190612010565b604001356104e9565b8061118d8161210b565b9150506110bc565b60005b838110156112a6576112948585838181106111b5576111b561213c565b6111cb92602060e090920201908101915061180b565b8686848181106111dd576111dd61213c565b905060e0020160200160208101906111f59190611e03565b8787858181106112075761120761213c565b905060e00201604001358888868181106112235761122361213c565b905060e002016060013589898781811061123f5761123f61213c565b905060e00201608001358a8a8881811061125b5761125b61213c565b905060e0020160a0016020810190611273919061180b565b8b8b898181106112855761128561213c565b905060e0020160c00135610623565b8061129e8161210b565b915050611198565b5060005b818110156107265761142a8383838181106112c7576112c761213c565b90506020028101906112d99190611ff0565b6112e790602081019061180b565b8484848181106112f9576112f961213c565b905060200281019061130b9190611ff0565b61131c906040810190602001611e03565b85858581811061132e5761132e61213c565b90506020028101906113409190611ff0565b604001358686868181106113565761135661213c565b90506020028101906113689190611ff0565b6060013587878781811061137e5761137e61213c565b90506020028101906113909190611ff0565b608001358888888181106113a6576113a661213c565b90506020028101906113b89190611ff0565b6113c69060a0810190611fa9565b8080601f0160208091040260200160405190810160405280939291908181526020018383808284376000920191909152508c92508b91508a905081811061140f5761140f61213c565b90506020028101906114219190611ff0565b60c0013561037b565b806114348161210b565b9150506112aa565b80356001600160a01b038116811461145357600080fd5b919050565b60008083601f84011261146a57600080fd5b50813567ffffffffffffffff81111561148257600080fd5b6020830191508360208260051b850101111561149d57600080fd5b9250929050565b60008083601f8401126114b657600080fd5b50813567ffffffffffffffff8111156114ce57600080fd5b60208301915083602060e08302850101111561149d57600080fd5b600082601f8301126114fa57600080fd5b8135602061150f61150a836120a3565b612072565b80838252828201915082860187848660051b890101111561152f57600080fd5b60005b858110156115ed57813567ffffffffffffffff8082111561155257600080fd5b9089019060c0828c03601f190181131561156b57600080fd5b611573612026565b61157e89850161143c565b8152604061158d8186016117fa565b8a830152606080860135828401526080915081860135818401525060a08086013582840152838601359350848411156115c557600080fd5b6115d38f8c8689010161178a565b908301525087525050509284019290840190600101611532565b5090979650505050505050565b600082601f83011261160b57600080fd5b8135602061161b61150a836120a3565b80838252828201915082860187848660051b890101111561163b57600080fd5b60005b858110156115ed57813567ffffffffffffffff8082111561165e57600080fd5b908901906040828c03601f190181131561167757600080fd5b61167f61204f565b83890135815290830135908282111561169757600080fd5b6116a58d8a8487010161178a565b818a01528752505050928401929084019060010161163e565b600082601f8301126116cf57600080fd5b813560206116df61150a836120a3565b8281528181019085830160c0808602880185018910156116fe57600080fd5b6000805b8781101561177b5782848c031215611718578182fd5b611720612026565b6117298561143c565b81526117368886016117fa565b8189015260408581013590820152606080860135908201526080808601359082015260a061176581870161143c565b9082015286529486019492820192600101611702565b50929998505050505050505050565b600082601f83011261179b57600080fd5b813567ffffffffffffffff8111156117b5576117b5612152565b6117c8601f8201601f1916602001612072565b8181528460208386010111156117dd57600080fd5b816020850160208301376000918101602001919091529392505050565b803560ff8116811461145357600080fd5b60006020828403121561181d57600080fd5b6118268261143c565b9392505050565b6000806040838503121561184057600080fd5b6118498361143c565b91506118576020840161143c565b90509250929050565b600080600080600080600080600060a08a8c03121561187e57600080fd5b6118878a61143c565b985060208a013567ffffffffffffffff808211156118a457600080fd5b818c0191508c601f8301126118b857600080fd5b8135818111156118c757600080fd5b8d60206060830285010111156118dc57600080fd5b602083019a508099505060408c01359150808211156118fa57600080fd5b6119068d838e01611458565b909850965060608c013591508082111561191f57600080fd5b61192b8d838e016114a4565b909650945060808c013591508082111561194457600080fd5b506119518c828d01611458565b915080935050809150509295985092959850929598565b600080600080600060a0868803121561198057600080fd5b6119898661143c565b945060208087013567ffffffffffffffff808211156119a757600080fd5b818901915089601f8301126119bb57600080fd5b81356119c961150a826120a3565b8082825285820191508585018d878560061b88010111156119e957600080fd5b600095505b83861015611a36576040818f031215611a0657600080fd5b611a0e61204f565b81358152611a1d88830161143c565b81890152835260019590950194918601916040016119ee565b50985050506040890135925080831115611a4f57600080fd5b611a5b8a848b016115fa565b95506060890135925080831115611a7157600080fd5b611a7d8a848b016116be565b94506080890135925080831115611a9357600080fd5b5050611aa1888289016114e9565b9150509295509295909350565b600080600060608486031215611ac357600080fd5b611acc8461143c565b925060208401359150611ae16040850161143c565b90509250925092565b60008060008060808587031215611b0057600080fd5b611b098561143c565b935060208501359250611b1e6040860161143c565b9396929550929360600135925050565b600080600060608486031215611b4357600080fd5b611b4c8461143c565b925060208401359150604084013567ffffffffffffffff811115611b6f57600080fd5b611b7b8682870161178a565b9150509250925092565b60008060008060808587031215611b9b57600080fd5b611ba48561143c565b935060208501359250604085013567ffffffffffffffff811115611bc757600080fd5b611bd38782880161178a565b949793965093946060013593505050565b600080600080600060a08688031215611bfc57600080fd5b611c058661143c565b9450611c13602087016117fa565b93506040860135925060608601359150611c2f6080870161143c565b90509295509295909350565b60008060008060008060c08789031215611c5457600080fd5b611c5d8761143c565b9550611c6b602088016117fa565b9450604087013593506060870135925060808701359150611c8e60a0880161143c565b90509295509295509295565b600080600080600080600060e0888a031215611cb557600080fd5b611cbe8861143c565b9650611ccc602089016117fa565b9550604088013594506060880135935060808801359250611cef60a0890161143c565b915060c0880135905092959891949750929550565b60008060008060008060c08789031215611d1d57600080fd5b611d268761143c565b9550611d34602088016117fa565b945060408701359350606087013592506080870135915060a087013567ffffffffffffffff811115611d6557600080fd5b611d7189828a0161178a565b9150509295509295509295565b600080600080600080600060e0888a031215611d9957600080fd5b611da28861143c565b9650611db0602089016117fa565b955060408801359450606088013593506080880135925060a088013567ffffffffffffffff811115611de157600080fd5b611ded8a828b0161178a565b92505060c0880135905092959891949750929550565b600060208284031215611e1557600080fd5b611826826117fa565b60008151808452611e368160208601602086016120df565b601f01601f19169290920160200192915050565b60006001600160f81b0319808a1683528089166001840152506bffffffffffffffffffffffff19808860601b166002840152866016840152808660601b166036840152507f7265766f6b654174747269627574650000000000000000000000000000000000604a8301528360598301528251611ecd8160798501602087016120df565b9190910160790198975050505050505050565b60006001600160f81b0319808b168352808a166001840152506bffffffffffffffffffffffff19808960601b166002840152876016840152808760601b166036840152507f7365744174747269627574650000000000000000000000000000000000000000604a8301528460568301528351611f638160768501602088016120df565b607692019182019290925260960198975050505050505050565b848152608060208201526000611f966080830186611e1e565b6040830194909452506060015292915050565b6000808335601e19843603018112611fc057600080fd5b83018035915067ffffffffffffffff821115611fdb57600080fd5b60200191503681900382131561149d57600080fd5b6000823560de1983360301811261200657600080fd5b9190910192915050565b60008235605e1983360301811261200657600080fd5b60405160c0810167ffffffffffffffff8111828210171561204957612049612152565b60405290565b6040805190810167ffffffffffffffff8111828210171561204957612049612152565b604051601f8201601f1916810167ffffffffffffffff8111828210171561209b5761209b612152565b604052919050565b600067ffffffffffffffff8211156120bd576120bd612152565b5060051b60200190565b600082198211156120da576120da612126565b500190565b60005b838110156120fa5781810151838201526020016120e2565b838111156104f65750506000910152565b600060001982141561211f5761211f612126565b5060010190565b634e487b7160e01b600052601160045260246000fd5b634e487b7160e01b600052603260045260246000fd5b634e487b7160e01b600052604160045260246000fdfea26469706673582212203f39a7290f0a1e0ad5803ea8e2970c38ae062ecd5e5854cfa3b7254dc05b736464736f6c63430008070033",
  "linkReferences": {},
  "deployedLinkReferences": {}
}