{
  "_format": "hh-sol-artifact-1",
  "contractName": "NameRegistry",
  "sourceName": "contracts/NameRegistry.sol",
  "abi": [
    {
      "anonymous": false,
      "inputs": [
        {
          "indexed": true,
          "internalType": "bytes32",
          "name": "name",
          "type": "bytes32"
        },
        {
          "indexed": true,
          "internalType": "address",
          "name": "DID",
          "type": "address"
        }
      ],
      "name": "Register",
      "type": "event"
    },
    {
      "anonymous": false,
      "inputs": [
        {
          "indexed": true,
          "internalType": "bytes32",
          "name": "name",
          "type": "bytes32"
        },
        {
          "indexed": true,
          "internalType": "address",
          "name": "DID",
          "type": "address"
        }
      ],
      "name": "Unregister",
      "type": "event"
    },
    {
      "inputs": [
        {
          "internalType": "bytes32",
          "name": "name",
          "type": "bytes32"
        }
      ],
      "name": "findDid",
      "outputs": [
        {
          "internalType": "address",
          "name": "",
          "type": "address"
        }
      ],
      "stateMutability": "view",
      "type": "function"
    },
    {
      "inputs": [
        {
          "internalType": "address",
          "name": "did",
          "type": "address"
        },
        {
          "internalType": "bytes",
          "name": "signature",
          "type": "bytes"
        }
      ],
      "name": "getUserNameList",
      "outputs": [
        {
          "internalType": "bytes32[]",
          "name": "",
          "type": "bytes32[]"
        }
      ],
      "stateMutability": "view",
      "type": "function"
    },
    {
      "inputs": [
        {
          "internalType": "bytes32",
          "name": "name",
          "type": "bytes32"
        },
        {
          "internalType": "address",
          "name": "did",
          "type": "address"
        },
        {
          "internalType": "bytes",
          "name": "signature",
          "type": "bytes"
        }
      ],
      "name": "register",
      "outputs": [],
      "stateMutability": "nonpayable",
      "type": "function"
    },
    {
      "inputs": [
        {
          "internalType": "bytes32",
          "name": "name",
          "type": "bytes32"
        },
        {
          "internalType": "address",
          "name": "did",
          "type": "address"
        },
        {
          "internalType": "bytes",
          "name": "signature",
          "type": "bytes"
        }
      ],
      "name": "unregister",
      "outputs": [],
      "stateMutability": "nonpayable",
      "type": "function"
    }
  ],
  "bytecode": "0x608060405234801561001057600080fd5b50611374806100206000396000f3fe608060405234801561001057600080fd5b506004361061004c5760003560e01c80634315f99a146100515780635448ce641461006d57806383d4b56914610089578063dc230d74146100b9575b600080fd5b61006b60048036038101906100669190610d20565b6100e9565b005b61008760048036038101906100829190610d20565b6103a7565b005b6100a3600480360381019061009e9190610cf3565b6106be565b6040516100b09190610efa565b60405180910390f35b6100d360048036038101906100ce9190610c93565b61076f565b6040516100e09190610f15565b60405180910390f35b82828260006040518060800160405280604181526020016112fe6041913990506101608184848080601f016020809104026020016040519081016040528093929190818152602001838380828437600081840152601f19601f8201169050808301925050505050505061096990919063ffffffff16565b61019f576040517f08c379a000000000000000000000000000000000000000000000000000000000815260040161019690610f37565b60405180910390fd5b600073ffffffffffffffffffffffffffffffffffffffff168773ffffffffffffffffffffffffffffffffffffffff16141561020f576040517f08c379a000000000000000000000000000000000000000000000000000000000815260040161020690610f57565b60405180910390fd5b600073ffffffffffffffffffffffffffffffffffffffff166000808a815260200190815260200160002060009054906101000a900473ffffffffffffffffffffffffffffffffffffffff1673ffffffffffffffffffffffffffffffffffffffff16146102b0576040517f08c379a00000000000000000000000000000000000000000000000000000000081526004016102a790610f77565b60405180910390fd5b6000600160008973ffffffffffffffffffffffffffffffffffffffff1673ffffffffffffffffffffffffffffffffffffffff1681526020019081526020016000209050876000808b815260200190815260200160002060006101000a81548173ffffffffffffffffffffffffffffffffffffffff021916908373ffffffffffffffffffffffffffffffffffffffff16021790555061035789826109d690919063ffffffff16565b508773ffffffffffffffffffffffffffffffffffffffff16897f1082cda15f9606da555bb7e9bf4eeee2f8e34abe85d3924bf9bacb716f8feca660405160405180910390a3505050505050505050565b82828260006040518060800160405280604181526020016112fe60419139905061041e8184848080601f016020809104026020016040519081016040528093929190818152602001838380828437600081840152601f19601f8201169050808301925050505050505061096990919063ffffffff16565b61045d576040517f08c379a000000000000000000000000000000000000000000000000000000000815260040161045490610f37565b60405180910390fd5b600073ffffffffffffffffffffffffffffffffffffffff168773ffffffffffffffffffffffffffffffffffffffff1614156104cd576040517f08c379a00000000000000000000000000000000000000000000000000000000081526004016104c490610f57565b60405180910390fd5b60008060008a815260200190815260200160002060009054906101000a900473ffffffffffffffffffffffffffffffffffffffff169050600073ffffffffffffffffffffffffffffffffffffffff168173ffffffffffffffffffffffffffffffffffffffff161415610574576040517f08c379a000000000000000000000000000000000000000000000000000000000815260040161056b90610fb7565b60405180910390fd5b8773ffffffffffffffffffffffffffffffffffffffff168173ffffffffffffffffffffffffffffffffffffffff16146105e2576040517f08c379a00000000000000000000000000000000000000000000000000000000081526004016105d990610f97565b60405180910390fd5b6000600160008373ffffffffffffffffffffffffffffffffffffffff1673ffffffffffffffffffffffffffffffffffffffff16815260200190815260200160002090506000808b815260200190815260200160002060006101000a81549073ffffffffffffffffffffffffffffffffffffffff021916905561066d8a826109ed90919063ffffffff16565b508173ffffffffffffffffffffffffffffffffffffffff168a7f5ab87ea015fab7240adeb26ebe7dfee4c55da3addb555d998e840d560672481560405160405180910390a350505050505050505050565b60008060008084815260200190815260200160002060009054906101000a900473ffffffffffffffffffffffffffffffffffffffff169050600073ffffffffffffffffffffffffffffffffffffffff168173ffffffffffffffffffffffffffffffffffffffff161415610766576040517f08c379a000000000000000000000000000000000000000000000000000000000815260040161075d90610fb7565b60405180910390fd5b80915050919050565b606083838360006040518060800160405280604181526020016112fe6041913990506107e88184848080601f016020809104026020016040519081016040528093929190818152602001838380828437600081840152601f19601f8201169050808301925050505050505061096990919063ffffffff16565b610827576040517f08c379a000000000000000000000000000000000000000000000000000000000815260040161081e90610f37565b60405180910390fd5b6000600160008a73ffffffffffffffffffffffffffffffffffffffff1673ffffffffffffffffffffffffffffffffffffffff1681526020019081526020016000209050600061087582610a04565b9050600081116108ba576040517f08c379a00000000000000000000000000000000000000000000000000000000081526004016108b190610fd7565b60405180910390fd5b60008167ffffffffffffffff8111156108d6576108d5611191565b5b6040519080825280602002602001820160405280156109045781602001602082028036833780820191505090505b50905060005b82811015610957576109258185610a1990919063ffffffff16565b82828151811061093857610937611162565b5b602002602001018181525050808061094f906110bb565b91505061090a565b50809750505050505050509392505050565b600080600190508351835181146001811461098757600092506109ca565b600160208701838101602088015b6002848385100114156109c55780518351146109b45760009650600093505b602083019250602081019050610995565b505050505b50508091505092915050565b60006109e58360000183610a30565b905092915050565b60006109fc8360000183610aa0565b905092915050565b6000610a1282600001610bb4565b9050919050565b6000610a288360000183610bc5565b905092915050565b6000610a3c8383610bf0565b610a95578260000182908060018154018082558091505060019003906000526020600020016000909190919091505582600001805490508360010160008481526020019081526020016000208190555060019050610a9a565b600090505b92915050565b60008083600101600084815260200190815260200160002054905060008114610ba8576000600182610ad29190611041565b9050600060018660000180549050610aea9190611041565b9050818114610b59576000866000018281548110610b0b57610b0a611162565b5b9060005260206000200154905080876000018481548110610b2f57610b2e611162565b5b90600052602060002001819055508387600101600083815260200190815260200160002081905550505b85600001805480610b6d57610b6c611133565b5b600190038181906000526020600020016000905590558560010160008681526020019081526020016000206000905560019350505050610bae565b60009150505b92915050565b600081600001805490509050919050565b6000826000018281548110610bdd57610bdc611162565b5b9060005260206000200154905092915050565b600080836001016000848152602001908152602001600020541415905092915050565b600081359050610c22816112cf565b92915050565b600081359050610c37816112e6565b92915050565b60008083601f840112610c5357610c526111c5565b5b8235905067ffffffffffffffff811115610c7057610c6f6111c0565b5b602083019150836001820283011115610c8c57610c8b6111ca565b5b9250929050565b600080600060408486031215610cac57610cab6111d4565b5b6000610cba86828701610c13565b935050602084013567ffffffffffffffff811115610cdb57610cda6111cf565b5b610ce786828701610c3d565b92509250509250925092565b600060208284031215610d0957610d086111d4565b5b6000610d1784828501610c28565b91505092915050565b60008060008060608587031215610d3a57610d396111d4565b5b6000610d4887828801610c28565b9450506020610d5987828801610c13565b935050604085013567ffffffffffffffff811115610d7a57610d796111cf565b5b610d8687828801610c3d565b925092505092959194509250565b6000610da08383610e19565b60208301905092915050565b610db581611075565b82525050565b6000610dc682611007565b610dd0818561101f565b9350610ddb83610ff7565b8060005b83811015610e0c578151610df38882610d94565b9750610dfe83611012565b925050600181019050610ddf565b5085935050505092915050565b610e2281611087565b82525050565b6000610e35601183611030565b9150610e40826111d9565b602082019050919050565b6000610e58601483611030565b9150610e6382611202565b602082019050919050565b6000610e7b601783611030565b9150610e868261122b565b602082019050919050565b6000610e9e600b83611030565b9150610ea982611254565b602082019050919050565b6000610ec1601183611030565b9150610ecc8261127d565b602082019050919050565b6000610ee4601183611030565b9150610eef826112a6565b602082019050919050565b6000602082019050610f0f6000830184610dac565b92915050565b60006020820190508181036000830152610f2f8184610dbb565b905092915050565b60006020820190508181036000830152610f5081610e28565b9050919050565b60006020820190508181036000830152610f7081610e4b565b9050919050565b60006020820190508181036000830152610f9081610e6e565b9050919050565b60006020820190508181036000830152610fb081610e91565b9050919050565b60006020820190508181036000830152610fd081610eb4565b9050919050565b60006020820190508181036000830152610ff081610ed7565b9050919050565b6000819050602082019050919050565b600081519050919050565b6000602082019050919050565b600082825260208201905092915050565b600082825260208201905092915050565b600061104c826110b1565b9150611057836110b1565b92508282101561106a57611069611104565b5b828203905092915050565b600061108082611091565b9050919050565b6000819050919050565b600073ffffffffffffffffffffffffffffffffffffffff82169050919050565b6000819050919050565b60006110c6826110b1565b91507fffffffffffffffffffffffffffffffffffffffffffffffffffffffffffffffff8214156110f9576110f8611104565b5b600182019050919050565b7f4e487b7100000000000000000000000000000000000000000000000000000000600052601160045260246000fd5b7f4e487b7100000000000000000000000000000000000000000000000000000000600052603160045260246000fd5b7f4e487b7100000000000000000000000000000000000000000000000000000000600052603260045260246000fd5b7f4e487b7100000000000000000000000000000000000000000000000000000000600052604160045260246000fd5b600080fd5b600080fd5b600080fd5b600080fd5b600080fd5b7f496e76616c6964207369676e6174757265000000000000000000000000000000600082015250565b7f496e76616c6964207a65726f2061646472657373000000000000000000000000600082015250565b7f4e616d6520616c72656164792072656769737465726564000000000000000000600082015250565b7f496e76616c696420444944000000000000000000000000000000000000000000600082015250565b7f556e72656769737465726564206e616d65000000000000000000000000000000600082015250565b7f4e6f207265676973746572656420444944000000000000000000000000000000600082015250565b6112d881611075565b81146112e357600080fd5b50565b6112ef81611087565b81146112fa57600080fd5b5056fe67de2d20880a7d27b71cdcb38817ba95800ca82dff557cedd91b96aacb9062e80b9e0b8cb9614fd61ce364502349e9079c26abaa21890d7bc2f1f6c8ff77f6261ca2646970667358221220d77448a6bfeb3a75f678df8f3d993e6ca1b1a1cb96b5d72455baf709f18c34f764736f6c63430008070033",
  "linkReferences": {},
  "deployedLinkReferences": {}
}