{
  "_format": "hh-sol-artifact-1",
  "contractName": "NameRegistry",
  "sourceName": "contracts/NameRegistry.sol",
  "abi": [
    {
      "inputs": [],
      "stateMutability": "nonpayable",
      "type": "constructor"
    },
    {
      "anonymous": false,
      "inputs": [
        {
          "indexed": true,
          "internalType": "address",
          "name": "previousOwner",
          "type": "address"
        },
        {
          "indexed": true,
          "internalType": "address",
          "name": "newOwner",
          "type": "address"
        }
      ],
      "name": "OwnershipTransferred",
      "type": "event"
    },
    {
      "anonymous": false,
      "inputs": [
        {
          "indexed": true,
          "internalType": "bytes32",
          "name": "name",
          "type": "bytes32"
        },
        {
          "indexed": true,
          "internalType": "address",
          "name": "DID",
          "type": "address"
        }
      ],
      "name": "Register",
      "type": "event"
    },
    {
      "anonymous": false,
      "inputs": [
        {
          "indexed": true,
          "internalType": "bytes32",
          "name": "name",
          "type": "bytes32"
        },
        {
          "indexed": true,
          "internalType": "address",
          "name": "DID",
          "type": "address"
        }
      ],
      "name": "Unregister",
      "type": "event"
    },
    {
      "inputs": [
        {
          "internalType": "bytes32",
          "name": "suffix",
          "type": "bytes32"
        }
      ],
      "name": "addSufix",
      "outputs": [],
      "stateMutability": "nonpayable",
      "type": "function"
    },
    {
      "inputs": [
        {
          "internalType": "bytes32",
          "name": "name",
          "type": "bytes32"
        }
      ],
      "name": "findDid",
      "outputs": [
        {
          "internalType": "address",
          "name": "",
          "type": "address"
        }
      ],
      "stateMutability": "view",
      "type": "function"
    },
    {
      "inputs": [
        {
          "internalType": "address",
          "name": "did",
          "type": "address"
        },
        {
          "internalType": "bytes",
          "name": "signature",
          "type": "bytes"
        }
      ],
      "name": "getUserNameList",
      "outputs": [
        {
          "internalType": "bytes32[]",
          "name": "",
          "type": "bytes32[]"
        }
      ],
      "stateMutability": "view",
      "type": "function"
    },
    {
      "inputs": [],
      "name": "owner",
      "outputs": [
        {
          "internalType": "address",
          "name": "",
          "type": "address"
        }
      ],
      "stateMutability": "view",
      "type": "function"
    },
    {
      "inputs": [
        {
          "internalType": "bytes32",
          "name": "name",
          "type": "bytes32"
        },
        {
          "internalType": "address",
          "name": "did",
          "type": "address"
        },
        {
          "internalType": "bytes",
          "name": "signature",
          "type": "bytes"
        }
      ],
      "name": "register",
      "outputs": [],
      "stateMutability": "nonpayable",
      "type": "function"
    },
    {
      "inputs": [],
      "name": "renounceOwnership",
      "outputs": [],
      "stateMutability": "nonpayable",
      "type": "function"
    },
    {
      "inputs": [
        {
          "internalType": "address",
          "name": "newOwner",
          "type": "address"
        }
      ],
      "name": "transferOwnership",
      "outputs": [],
      "stateMutability": "nonpayable",
      "type": "function"
    },
    {
      "inputs": [
        {
          "internalType": "bytes32",
          "name": "name",
          "type": "bytes32"
        },
        {
          "internalType": "address",
          "name": "did",
          "type": "address"
        },
        {
          "internalType": "bytes",
          "name": "signature",
          "type": "bytes"
        }
      ],
      "name": "unregister",
      "outputs": [],
      "stateMutability": "nonpayable",
      "type": "function"
    }
  ],
  "bytecode": "0x60806040523480156200001157600080fd5b5062000032620000266200009960201b60201c565b620000a160201b60201c565b620000926200007c6040518060400160405280600681526020017f76657269646100000000000000000000000000000000000000000000000000008152506200016560201b60201c565b60026200019160201b62000cfe1790919060201c565b506200024d565b600033905090565b60008060009054906101000a900473ffffffffffffffffffffffffffffffffffffffff169050816000806101000a81548173ffffffffffffffffffffffffffffffffffffffff021916908373ffffffffffffffffffffffffffffffffffffffff1602179055508173ffffffffffffffffffffffffffffffffffffffff168173ffffffffffffffffffffffffffffffffffffffff167f8be0079c531659141344cd1fd0a4f28419497f9722a3daafe3b4186f6b6457e060405160405180910390a35050565b60008082905060008151141562000183576000801b9150506200018c565b60208301519150505b919050565b6000620001a88360000183620001b060201b60201c565b905092915050565b6000620001c483836200022a60201b60201c565b6200021f57826000018290806001815401808255809150506001900390600052602060002001600090919091909150558260000180549050836001016000848152602001908152602001600020819055506001905062000224565b600090505b92915050565b600080836001016000848152602001908152602001600020541415905092915050565b611d6b806200025d6000396000f3fe608060405234801561001057600080fd5b50600436106100885760003560e01c806383d4b5691161005b57806383d4b569146100eb5780638da5cb5b1461011b578063dc230d7414610139578063f2fde38b1461016957610088565b80630b5259401461008d5780634315f99a146100a95780635448ce64146100c5578063715018a6146100e1575b600080fd5b6100a760048036038101906100a291906113dc565b610185565b005b6100c360048036038101906100be9190611409565b61026d565b005b6100df60048036038101906100da9190611409565b610590565b005b6100e96108a9565b005b610105600480360381019061010091906113dc565b610931565b6040516101129190611692565b60405180910390f35b6101236109e3565b6040516101309190611692565b60405180910390f35b610153600480360381019061014e919061137c565b610a0c565b60405161016091906116ad565b60405180910390f35b610183600480360381019061017e919061134f565b610c06565b005b61018d610d15565b73ffffffffffffffffffffffffffffffffffffffff166101ab6109e3565b73ffffffffffffffffffffffffffffffffffffffff1614610201576040517f08c379a00000000000000000000000000000000000000000000000000000000081526004016101f8906117af565b60405180910390fd5b610215816002610d1d90919063ffffffff16565b15610255576040517f08c379a000000000000000000000000000000000000000000000000000000000815260040161024c9061172f565b60405180910390fd5b610269816002610cfe90919063ffffffff16565b5050565b8282826000604051806080016040528060418152602001611cf56041913990506102e48184848080601f016020809104026020016040519081016040528093929190818152602001838380828437600081840152601f19601f82011690508083019250505050505050610d3490919063ffffffff16565b610323576040517f08c379a000000000000000000000000000000000000000000000000000000000815260040161031a9061174f565b60405180910390fd5b87600061032f82610da1565b9050610345816002610d1d90919063ffffffff16565b610384576040517f08c379a000000000000000000000000000000000000000000000000000000000815260040161037b906116cf565b60405180910390fd5b600073ffffffffffffffffffffffffffffffffffffffff168973ffffffffffffffffffffffffffffffffffffffff1614156103f4576040517f08c379a00000000000000000000000000000000000000000000000000000000081526004016103eb9061176f565b60405180910390fd5b600073ffffffffffffffffffffffffffffffffffffffff16600160008c815260200190815260200160002060009054906101000a900473ffffffffffffffffffffffffffffffffffffffff1673ffffffffffffffffffffffffffffffffffffffff1614610496576040517f08c379a000000000000000000000000000000000000000000000000000000000815260040161048d9061178f565b60405180910390fd5b6000600460008b73ffffffffffffffffffffffffffffffffffffffff1673ffffffffffffffffffffffffffffffffffffffff168152602001908152602001600020905089600160008d815260200190815260200160002060006101000a81548173ffffffffffffffffffffffffffffffffffffffff021916908373ffffffffffffffffffffffffffffffffffffffff16021790555061053e8b82610cfe90919063ffffffff16565b508973ffffffffffffffffffffffffffffffffffffffff168b7f1082cda15f9606da555bb7e9bf4eeee2f8e34abe85d3924bf9bacb716f8feca660405160405180910390a35050505050505050505050565b8282826000604051806080016040528060418152602001611cf56041913990506106078184848080601f016020809104026020016040519081016040528093929190818152602001838380828437600081840152601f19601f82011690508083019250505050505050610d3490919063ffffffff16565b610646576040517f08c379a000000000000000000000000000000000000000000000000000000000815260040161063d9061174f565b60405180910390fd5b600073ffffffffffffffffffffffffffffffffffffffff168773ffffffffffffffffffffffffffffffffffffffff1614156106b6576040517f08c379a00000000000000000000000000000000000000000000000000000000081526004016106ad9061176f565b60405180910390fd5b6000600160008a815260200190815260200160002060009054906101000a900473ffffffffffffffffffffffffffffffffffffffff169050600073ffffffffffffffffffffffffffffffffffffffff168173ffffffffffffffffffffffffffffffffffffffff16141561075e576040517f08c379a0000000000000000000000000000000000000000000000000000000008152600401610755906117ef565b60405180910390fd5b8773ffffffffffffffffffffffffffffffffffffffff168173ffffffffffffffffffffffffffffffffffffffff16146107cc576040517f08c379a00000000000000000000000000000000000000000000000000000000081526004016107c3906117cf565b60405180910390fd5b6000600460008373ffffffffffffffffffffffffffffffffffffffff1673ffffffffffffffffffffffffffffffffffffffff1681526020019081526020016000209050600160008b815260200190815260200160002060006101000a81549073ffffffffffffffffffffffffffffffffffffffff02191690556108588a82610fe590919063ffffffff16565b508173ffffffffffffffffffffffffffffffffffffffff168a7f5ab87ea015fab7240adeb26ebe7dfee4c55da3addb555d998e840d560672481560405160405180910390a350505050505050505050565b6108b1610d15565b73ffffffffffffffffffffffffffffffffffffffff166108cf6109e3565b73ffffffffffffffffffffffffffffffffffffffff1614610925576040517f08c379a000000000000000000000000000000000000000000000000000000000815260040161091c906117af565b60405180910390fd5b61092f6000610ffc565b565b6000806001600084815260200190815260200160002060009054906101000a900473ffffffffffffffffffffffffffffffffffffffff169050600073ffffffffffffffffffffffffffffffffffffffff168173ffffffffffffffffffffffffffffffffffffffff1614156109da576040517f08c379a00000000000000000000000000000000000000000000000000000000081526004016109d1906117ef565b60405180910390fd5b80915050919050565b60008060009054906101000a900473ffffffffffffffffffffffffffffffffffffffff16905090565b60608383836000604051806080016040528060418152602001611cf5604191399050610a858184848080601f016020809104026020016040519081016040528093929190818152602001838380828437600081840152601f19601f82011690508083019250505050505050610d3490919063ffffffff16565b610ac4576040517f08c379a0000000000000000000000000000000000000000000000000000000008152600401610abb9061174f565b60405180910390fd5b6000600460008a73ffffffffffffffffffffffffffffffffffffffff1673ffffffffffffffffffffffffffffffffffffffff16815260200190815260200160002090506000610b12826110c0565b905060008111610b57576040517f08c379a0000000000000000000000000000000000000000000000000000000008152600401610b4e9061180f565b60405180910390fd5b60008167ffffffffffffffff811115610b7357610b72611a95565b5b604051908082528060200260200182016040528015610ba15781602001602082028036833780820191505090505b50905060005b82811015610bf457610bc281856110d590919063ffffffff16565b828281518110610bd557610bd4611a66565b5b6020026020010181815250508080610bec90611995565b915050610ba7565b50809750505050505050509392505050565b610c0e610d15565b73ffffffffffffffffffffffffffffffffffffffff16610c2c6109e3565b73ffffffffffffffffffffffffffffffffffffffff1614610c82576040517f08c379a0000000000000000000000000000000000000000000000000000000008152600401610c79906117af565b60405180910390fd5b600073ffffffffffffffffffffffffffffffffffffffff168173ffffffffffffffffffffffffffffffffffffffff161415610cf2576040517f08c379a0000000000000000000000000000000000000000000000000000000008152600401610ce9906116ef565b60405180910390fd5b610cfb81610ffc565b50565b6000610d0d83600001836110ec565b905092915050565b600033905090565b6000610d2c836000018361115c565b905092915050565b6000806001905083518351811460018114610d525760009250610d95565b600160208701838101602088015b600284838510011415610d90578051835114610d7f5760009650600093505b602083019250602081019050610d60565b505050505b50508091505092915050565b600080602090506000602090506000601f90505b60008160ff1610158015610dcc5750601f8360ff16115b15610e9657601f8260ff16118015610e235750600060f81b858260ff1660208110610dfa57610df9611a66565b5b1a60f81b7effffffffffffffffffffffffffffffffffffffffffffffffffffffffffffff191614155b15610e2c578091505b602e60f81b858260ff1660208110610e4757610e46611a66565b5b1a60f81b7effffffffffffffffffffffffffffffffffffffffffffffffffffffffffffff19161415610e8357600181610e809190611879565b92505b8080610e8e9061196b565b915050610db5565b60208360ff1610610edc576040517f08c379a0000000000000000000000000000000000000000000000000000000008152600401610ed39061170f565b60405180910390fd5b600060018484610eec91906118e4565b610ef69190611879565b60ff1667ffffffffffffffff811115610f1257610f11611a95565b5b6040519080825280601f01601f191660200182016040528015610f445781602001600182028036833780820191505090505b5090508391505b8260ff168260ff1611610fd557858260ff1660208110610f6e57610f6d611a66565b5b1a60f81b818584610f7f91906118e4565b60ff1681518110610f9357610f92611a66565b5b60200101907effffffffffffffffffffffffffffffffffffffffffffffffffffffffffffff1916908160001a9053508180610fcd906119de565b925050610f4b565b6020810151945050505050919050565b6000610ff4836000018361117f565b905092915050565b60008060009054906101000a900473ffffffffffffffffffffffffffffffffffffffff169050816000806101000a81548173ffffffffffffffffffffffffffffffffffffffff021916908373ffffffffffffffffffffffffffffffffffffffff1602179055508173ffffffffffffffffffffffffffffffffffffffff168173ffffffffffffffffffffffffffffffffffffffff167f8be0079c531659141344cd1fd0a4f28419497f9722a3daafe3b4186f6b6457e060405160405180910390a35050565b60006110ce82600001611293565b9050919050565b60006110e483600001836112a4565b905092915050565b60006110f8838361115c565b611151578260000182908060018154018082558091505060019003906000526020600020016000909190919091505582600001805490508360010160008481526020019081526020016000208190555060019050611156565b600090505b92915050565b600080836001016000848152602001908152602001600020541415905092915050565b600080836001016000848152602001908152602001600020549050600081146112875760006001826111b191906118b0565b90506000600186600001805490506111c991906118b0565b90508181146112385760008660000182815481106111ea576111e9611a66565b5b906000526020600020015490508087600001848154811061120e5761120d611a66565b5b90600052602060002001819055508387600101600083815260200190815260200160002081905550505b8560000180548061124c5761124b611a37565b5b60019003818190600052602060002001600090559055856001016000868152602001908152602001600020600090556001935050505061128d565b60009150505b92915050565b600081600001805490509050919050565b60008260000182815481106112bc576112bb611a66565b5b9060005260206000200154905092915050565b6000813590506112de81611cc6565b92915050565b6000813590506112f381611cdd565b92915050565b60008083601f84011261130f5761130e611ac9565b5b8235905067ffffffffffffffff81111561132c5761132b611ac4565b5b60208301915083600182028301111561134857611347611ace565b5b9250929050565b60006020828403121561136557611364611ad8565b5b6000611373848285016112cf565b91505092915050565b60008060006040848603121561139557611394611ad8565b5b60006113a3868287016112cf565b935050602084013567ffffffffffffffff8111156113c4576113c3611ad3565b5b6113d0868287016112f9565b92509250509250925092565b6000602082840312156113f2576113f1611ad8565b5b6000611400848285016112e4565b91505092915050565b6000806000806060858703121561142357611422611ad8565b5b6000611431878288016112e4565b9450506020611442878288016112cf565b935050604085013567ffffffffffffffff81111561146357611462611ad3565b5b61146f878288016112f9565b925092505092959194509250565b60006114898383611502565b60208301905092915050565b61149e81611918565b82525050565b60006114af8261183f565b6114b98185611857565b93506114c48361182f565b8060005b838110156114f55781516114dc888261147d565b97506114e78361184a565b9250506001810190506114c8565b5085935050505092915050565b61150b8161192a565b82525050565b600061151e601383611868565b915061152982611add565b602082019050919050565b6000611541602683611868565b915061154c82611b06565b604082019050919050565b6000611564600983611868565b915061156f82611b55565b602082019050919050565b6000611587601283611868565b915061159282611b7e565b602082019050919050565b60006115aa601183611868565b91506115b582611ba7565b602082019050919050565b60006115cd601483611868565b91506115d882611bd0565b602082019050919050565b60006115f0601783611868565b91506115fb82611bf9565b602082019050919050565b6000611613602083611868565b915061161e82611c22565b602082019050919050565b6000611636600b83611868565b915061164182611c4b565b602082019050919050565b6000611659601183611868565b915061166482611c74565b602082019050919050565b600061167c601183611868565b915061168782611c9d565b602082019050919050565b60006020820190506116a76000830184611495565b92915050565b600060208201905081810360008301526116c781846114a4565b905092915050565b600060208201905081810360008301526116e881611511565b9050919050565b6000602082019050818103600083015261170881611534565b9050919050565b6000602082019050818103600083015261172881611557565b9050919050565b600060208201905081810360008301526117488161157a565b9050919050565b600060208201905081810360008301526117688161159d565b9050919050565b60006020820190508181036000830152611788816115c0565b9050919050565b600060208201905081810360008301526117a8816115e3565b9050919050565b600060208201905081810360008301526117c881611606565b9050919050565b600060208201905081810360008301526117e881611629565b9050919050565b600060208201905081810360008301526118088161164c565b9050919050565b600060208201905081810360008301526118288161166f565b9050919050565b6000819050602082019050919050565b600081519050919050565b6000602082019050919050565b600082825260208201905092915050565b600082825260208201905092915050565b60006118848261195e565b915061188f8361195e565b92508260ff038211156118a5576118a4611a08565b5b828201905092915050565b60006118bb82611954565b91506118c683611954565b9250828210156118d9576118d8611a08565b5b828203905092915050565b60006118ef8261195e565b91506118fa8361195e565b92508282101561190d5761190c611a08565b5b828203905092915050565b600061192382611934565b9050919050565b6000819050919050565b600073ffffffffffffffffffffffffffffffffffffffff82169050919050565b6000819050919050565b600060ff82169050919050565b60006119768261195e565b9150600082141561198a57611989611a08565b5b600182039050919050565b60006119a082611954565b91507fffffffffffffffffffffffffffffffffffffffffffffffffffffffffffffffff8214156119d3576119d2611a08565b5b600182019050919050565b60006119e98261195e565b915060ff8214156119fd576119fc611a08565b5b600182019050919050565b7f4e487b7100000000000000000000000000000000000000000000000000000000600052601160045260246000fd5b7f4e487b7100000000000000000000000000000000000000000000000000000000600052603160045260246000fd5b7f4e487b7100000000000000000000000000000000000000000000000000000000600052603260045260246000fd5b7f4e487b7100000000000000000000000000000000000000000000000000000000600052604160045260246000fd5b600080fd5b600080fd5b600080fd5b600080fd5b600080fd5b7f556e726567697374657265642073756666697800000000000000000000000000600082015250565b7f4f776e61626c653a206e6577206f776e657220697320746865207a65726f206160008201527f6464726573730000000000000000000000000000000000000000000000000000602082015250565b7f4e6f205375666669780000000000000000000000000000000000000000000000600082015250565b7f416c726561647920726567697374657265640000000000000000000000000000600082015250565b7f496e76616c6964207369676e6174757265000000000000000000000000000000600082015250565b7f496e76616c6964207a65726f2061646472657373000000000000000000000000600082015250565b7f4e616d6520616c72656164792072656769737465726564000000000000000000600082015250565b7f4f776e61626c653a2063616c6c6572206973206e6f7420746865206f776e6572600082015250565b7f496e76616c696420444944000000000000000000000000000000000000000000600082015250565b7f556e72656769737465726564206e616d65000000000000000000000000000000600082015250565b7f4e6f207265676973746572656420444944000000000000000000000000000000600082015250565b611ccf81611918565b8114611cda57600080fd5b50565b611ce68161192a565b8114611cf157600080fd5b5056fe67de2d20880a7d27b71cdcb38817ba95800ca82dff557cedd91b96aacb9062e80b9e0b8cb9614fd61ce364502349e9079c26abaa21890d7bc2f1f6c8ff77f6261ca2646970667358221220a0b7efa3380ed0388e24b7b9ab1640bb6c15a794bbbcfeb1aad4a170b093fea164736f6c63430008070033",
  "linkReferences": {},
  "deployedLinkReferences": {}
}