{
  "_format": "hh-sol-artifact-1",
  "contractName": "NameRegistry",
  "sourceName": "contracts/NameRegistry.sol",
  "abi": [
    {
      "anonymous": false,
      "inputs": [
        {
          "indexed": true,
          "internalType": "bytes32",
          "name": "name",
          "type": "bytes32"
        },
        {
          "indexed": true,
          "internalType": "address",
          "name": "DID",
          "type": "address"
        }
      ],
      "name": "Register",
      "type": "event"
    },
    {
      "anonymous": false,
      "inputs": [
        {
          "indexed": true,
          "internalType": "bytes32",
          "name": "name",
          "type": "bytes32"
        },
        {
          "indexed": true,
          "internalType": "address",
          "name": "DID",
          "type": "address"
        }
      ],
      "name": "Unregister",
      "type": "event"
    },
    {
      "inputs": [
        {
          "internalType": "bytes32",
          "name": "_name",
          "type": "bytes32"
        }
      ],
      "name": "findDid",
      "outputs": [
        {
          "internalType": "address",
          "name": "",
          "type": "address"
        }
      ],
      "stateMutability": "view",
      "type": "function"
    },
    {
      "inputs": [
        {
          "internalType": "address",
          "name": "_did",
          "type": "address"
        }
      ],
      "name": "getUserNameList",
      "outputs": [
        {
          "internalType": "bytes32[]",
          "name": "",
          "type": "bytes32[]"
        }
      ],
      "stateMutability": "view",
      "type": "function"
    },
    {
      "inputs": [
        {
          "internalType": "bytes32",
          "name": "_name",
          "type": "bytes32"
        },
        {
          "internalType": "address",
          "name": "_did",
          "type": "address"
        }
      ],
      "name": "register",
      "outputs": [],
      "stateMutability": "nonpayable",
      "type": "function"
    },
    {
      "inputs": [
        {
          "internalType": "bytes32",
          "name": "_name",
          "type": "bytes32"
        }
      ],
      "name": "unregister",
      "outputs": [],
      "stateMutability": "nonpayable",
      "type": "function"
    }
  ],
  "bytecode": "0x608060405234801561001057600080fd5b5061126f806100206000396000f3fe608060405234801561001057600080fd5b506004361061004c5760003560e01c80631a0919dc146100515780636fc742111461006d57806383d4b5691461009d578063d22057a9146100cd575b600080fd5b61006b60048036038101906100669190610c77565b6100e9565b005b61008760048036038101906100829190610c4a565b610353565b6040516100949190610e65565b60405180910390f35b6100b760048036038101906100b29190610c77565b610529565b6040516100c49190610e4a565b60405180910390f35b6100e760048036038101906100e29190610ca4565b6106b0565b005b600080600083815260200190815260200160002060009054906101000a900473ffffffffffffffffffffffffffffffffffffffff169050600073ffffffffffffffffffffffffffffffffffffffff168173ffffffffffffffffffffffffffffffffffffffff161415610190576040517f08c379a000000000000000000000000000000000000000000000000000000000815260040161018790610ee7565b60405180910390fd5b6000600160008373ffffffffffffffffffffffffffffffffffffffff1673ffffffffffffffffffffffffffffffffffffffff16815260200190815260200160002090503373ffffffffffffffffffffffffffffffffffffffff168160000160009054906101000a900473ffffffffffffffffffffffffffffffffffffffff1673ffffffffffffffffffffffffffffffffffffffff1614610265576040517f08c379a000000000000000000000000000000000000000000000000000000000815260040161025c90610f27565b60405180910390fd5b60008084815260200190815260200160002060006101000a81549073ffffffffffffffffffffffffffffffffffffffff02191690556102b083826001016109e390919063ffffffff16565b5060006102bf826001016109fa565b141561030a5760008160000160006101000a81548173ffffffffffffffffffffffffffffffffffffffff021916908373ffffffffffffffffffffffffffffffffffffffff1602179055505b8173ffffffffffffffffffffffffffffffffffffffff16837f5ab87ea015fab7240adeb26ebe7dfee4c55da3addb555d998e840d560672481560405160405180910390a3505050565b60606000600160008473ffffffffffffffffffffffffffffffffffffffff1673ffffffffffffffffffffffffffffffffffffffff16815260200190815260200160002090503373ffffffffffffffffffffffffffffffffffffffff168160000160009054906101000a900473ffffffffffffffffffffffffffffffffffffffff1673ffffffffffffffffffffffffffffffffffffffff161461042a576040517f08c379a000000000000000000000000000000000000000000000000000000000815260040161042190610f27565b60405180910390fd5b6000610438826001016109fa565b90506000811161047d576040517f08c379a000000000000000000000000000000000000000000000000000000000815260040161047490610f07565b60405180910390fd5b60008167ffffffffffffffff811115610499576104986110e1565b5b6040519080825280602002602001820160405280156104c75781602001602082028036833780820191505090505b50905060005b8281101561051d576104eb8185600101610a0f90919063ffffffff16565b8282815181106104fe576104fd6110b2565b5b60200260200101818152505080806105159061100b565b9150506104cd565b50809350505050919050565b60008060008084815260200190815260200160002060009054906101000a900473ffffffffffffffffffffffffffffffffffffffff169050600073ffffffffffffffffffffffffffffffffffffffff168173ffffffffffffffffffffffffffffffffffffffff1614156105d1576040517f08c379a00000000000000000000000000000000000000000000000000000000081526004016105c890610ee7565b60405180910390fd5b6000600160008373ffffffffffffffffffffffffffffffffffffffff1673ffffffffffffffffffffffffffffffffffffffff16815260200190815260200160002090503373ffffffffffffffffffffffffffffffffffffffff168160000160009054906101000a900473ffffffffffffffffffffffffffffffffffffffff1673ffffffffffffffffffffffffffffffffffffffff16146106a6576040517f08c379a000000000000000000000000000000000000000000000000000000000815260040161069d90610f27565b60405180910390fd5b8192505050919050565b600073ffffffffffffffffffffffffffffffffffffffff168173ffffffffffffffffffffffffffffffffffffffff161415610720576040517f08c379a000000000000000000000000000000000000000000000000000000000815260040161071790610ea7565b60405180910390fd5b600073ffffffffffffffffffffffffffffffffffffffff1660008084815260200190815260200160002060009054906101000a900473ffffffffffffffffffffffffffffffffffffffff1673ffffffffffffffffffffffffffffffffffffffff16146107c1576040517f08c379a00000000000000000000000000000000000000000000000000000000081526004016107b890610ec7565b60405180910390fd5b6000600160008373ffffffffffffffffffffffffffffffffffffffff1673ffffffffffffffffffffffffffffffffffffffff1681526020019081526020016000209050600073ffffffffffffffffffffffffffffffffffffffff168160000160009054906101000a900473ffffffffffffffffffffffffffffffffffffffff1673ffffffffffffffffffffffffffffffffffffffff16146108ef578060000160009054906101000a900473ffffffffffffffffffffffffffffffffffffffff1673ffffffffffffffffffffffffffffffffffffffff163373ffffffffffffffffffffffffffffffffffffffff16146108ee576040517f08c379a00000000000000000000000000000000000000000000000000000000081526004016108e590610e87565b60405180910390fd5b5b8160008085815260200190815260200160002060006101000a81548173ffffffffffffffffffffffffffffffffffffffff021916908373ffffffffffffffffffffffffffffffffffffffff160217905550338160000160006101000a81548173ffffffffffffffffffffffffffffffffffffffff021916908373ffffffffffffffffffffffffffffffffffffffff1602179055506109998382600101610a2690919063ffffffff16565b508173ffffffffffffffffffffffffffffffffffffffff16837f1082cda15f9606da555bb7e9bf4eeee2f8e34abe85d3924bf9bacb716f8feca660405160405180910390a3505050565b60006109f28360000183610a3d565b905092915050565b6000610a0882600001610b51565b9050919050565b6000610a1e8360000183610b62565b905092915050565b6000610a358360000183610b8d565b905092915050565b60008083600101600084815260200190815260200160002054905060008114610b45576000600182610a6f9190610f91565b9050600060018660000180549050610a879190610f91565b9050818114610af6576000866000018281548110610aa857610aa76110b2565b5b9060005260206000200154905080876000018481548110610acc57610acb6110b2565b5b90600052602060002001819055508387600101600083815260200190815260200160002081905550505b85600001805480610b0a57610b09611083565b5b600190038181906000526020600020016000905590558560010160008681526020019081526020016000206000905560019350505050610b4b565b60009150505b92915050565b600081600001805490509050919050565b6000826000018281548110610b7a57610b796110b2565b5b9060005260206000200154905092915050565b6000610b998383610bfd565b610bf2578260000182908060018154018082558091505060019003906000526020600020016000909190919091505582600001805490508360010160008481526020019081526020016000208190555060019050610bf7565b600090505b92915050565b600080836001016000848152602001908152602001600020541415905092915050565b600081359050610c2f8161120b565b92915050565b600081359050610c4481611222565b92915050565b600060208284031215610c6057610c5f611110565b5b6000610c6e84828501610c20565b91505092915050565b600060208284031215610c8d57610c8c611110565b5b6000610c9b84828501610c35565b91505092915050565b60008060408385031215610cbb57610cba611110565b5b6000610cc985828601610c35565b9250506020610cda85828601610c20565b9150509250929050565b6000610cf08383610d69565b60208301905092915050565b610d0581610fc5565b82525050565b6000610d1682610f57565b610d208185610f6f565b9350610d2b83610f47565b8060005b83811015610d5c578151610d438882610ce4565b9750610d4e83610f62565b925050600181019050610d2f565b5085935050505092915050565b610d7281610fd7565b82525050565b6000610d85600f83610f80565b9150610d9082611115565b602082019050919050565b6000610da8601483610f80565b9150610db38261113e565b602082019050919050565b6000610dcb601783610f80565b9150610dd682611167565b602082019050919050565b6000610dee601183610f80565b9150610df982611190565b602082019050919050565b6000610e11601183610f80565b9150610e1c826111b9565b602082019050919050565b6000610e34600b83610f80565b9150610e3f826111e2565b602082019050919050565b6000602082019050610e5f6000830184610cfc565b92915050565b60006020820190508181036000830152610e7f8184610d0b565b905092915050565b60006020820190508181036000830152610ea081610d78565b9050919050565b60006020820190508181036000830152610ec081610d9b565b9050919050565b60006020820190508181036000830152610ee081610dbe565b9050919050565b60006020820190508181036000830152610f0081610de1565b9050919050565b60006020820190508181036000830152610f2081610e04565b9050919050565b60006020820190508181036000830152610f4081610e27565b9050919050565b6000819050602082019050919050565b600081519050919050565b6000602082019050919050565b600082825260208201905092915050565b600082825260208201905092915050565b6000610f9c82611001565b9150610fa783611001565b925082821015610fba57610fb9611054565b5b828203905092915050565b6000610fd082610fe1565b9050919050565b6000819050919050565b600073ffffffffffffffffffffffffffffffffffffffff82169050919050565b6000819050919050565b600061101682611001565b91507fffffffffffffffffffffffffffffffffffffffffffffffffffffffffffffffff82141561104957611048611054565b5b600182019050919050565b7f4e487b7100000000000000000000000000000000000000000000000000000000600052601160045260246000fd5b7f4e487b7100000000000000000000000000000000000000000000000000000000600052603160045260246000fd5b7f4e487b7100000000000000000000000000000000000000000000000000000000600052603260045260246000fd5b7f4e487b7100000000000000000000000000000000000000000000000000000000600052604160045260246000fd5b600080fd5b7f4e6f74206120444944206f776e65720000000000000000000000000000000000600082015250565b7f496e76616c6964207a65726f2061646472657373000000000000000000000000600082015250565b7f4e616d6520616c72656164792072656769737465726564000000000000000000600082015250565b7f556e72656769737465726564206e616d65000000000000000000000000000000600082015250565b7f4e6f207265676973746572656420444944000000000000000000000000000000600082015250565b7f4e6f742061206f776e6572000000000000000000000000000000000000000000600082015250565b61121481610fc5565b811461121f57600080fd5b50565b61122b81610fd7565b811461123657600080fd5b5056fea26469706673582212206c7c682e3eb74cfc062d50966c7de841f7f4f53b99af34d7b7f37c7631739a1764736f6c63430008070033",
  "linkReferences": {},
  "deployedLinkReferences": {}
}